:020000040800F2
:1000000000000120392300083522000841220008A1
:10001000472200084D22000853220008000000007B
:10002000000000000000000000000000592200084D
:100030006522000800000000712200087D220008EF
:100040007D2300087D2300087D2300087D23000810
:100050007D230008892200087D2300087D230008F5
:100060007D2300087D2300087D2300087D230008F0
:100070007D2300087D2300087D2300087D230008E0
:100080007D2300087D2300087D2300087D230008D0
:100090007D2300087D2300087D2300087D230008C0
:1000A0007D2300087D2300087D2300087D230008B0
:1000B0007D2300087D2300087D2300087D230008A0
:1000C0007D2300087D2300087D2300087D23000890
:1000D0007D2300087D23000895220008A92200083E
:1000E0007D2300087D2300087D2300080000000018
:1000F0000000000000000000000000000000000000
:1001000000000000000000007D2300087D2300089F
:100110007D2300087D2300087D2300087D2300083F
:100120007D2300087D2300087D2300087D2300082F
:100130007D23000800000000000000007D2300086F
:100140007D2300087D2300087D2300087D2300080F
:10015000000000000000000000000000000000009F
:10016000000000000000000000000000000000008F
:10017000000000000000000000000000000000007F
:10018000000000000000000000000000000000006F
:10019000000000000000000000000000000000005F
:1001A000000000000000000000000000000000004F
:1001B000000000000000000000000000000000003F
:1001C000000000000000000000000000000000002F
:1001D000000000000000000000000000000000001F
:0401E0005FF8E0F1F3
:1001E40010B5054C237833B9044B13B10448AFF36D
:1001F40000800123237010BD0C00002000000000CB
:100204009023000808B5034B1BB103490348AFF31F
:10021400008008BD000000001000002090230008AA
:1002240053B94AB9002908BF00281CBF4FF0FF3159
:100234004FF0FF3000F074B9ADF1080C6DE904CE55
:1002440000F006F8DDF804E0DDE9022304B07047AD
:100254002DE9F0478C460446089E002B40F086802A
:100264008A42154648D9B2FA82F24AB1C2F120074D
:1002740001FA02F320FA07F7954047EA030C944089
:100284004FEA154EBCFBFEF71FFA85F80EFB17C3A9
:1002940007FB08F9210C41EA0343994509D9EB18F6
:1002A40007F1FF3180F0E180994540F2DE80023FA2
:1002B4002B44A3EB0903B3FBFEF00EFB103300FB4E
:1002C40008F1A4B244EA0344A14209D92C1900F16B
:1002D400FF3380F0C880A14240F2C58002382C442C
:1002E40040EA07400027641A1EB10023D440C6E93F
:1002F40000433946BDE8F087002A54D0B2FA82F2AE
:10030400002A40F0B4800127491B4FEA15481FFA20
:1003140085F9B1FBF8FE08FB1E1109FB0EF04FEA4C
:10032400144C4CEA0143984207D9EB180EF1FF3103
:1003340002D2984200F2EB808E461B1AB3FBF8F00F
:1003440008FB103309FB00F9A4B244EA0344A145B5
:1003540007D92C1900F1FF3302D2A14500F2DB804A
:100364001846A4EB090440EA0E40BDE78B4208D9C5
:10037400002E75D00027C6E9000138463946BDE88D
:10038400F087B3FA83F77FB98B4202D3824200F23B
:10039400BC80841A61EB030301209C46002EA8D084
:1003A400C6E9004CA5E7FFDEC7F12005BB4022FAF1
:1003B40005FC4CEA030C21FA05F44FEA1C4EB4FB8D
:1003C400FEF91FFA8CF80EFB194420FA05F3B94024
:1003D40009FB08FA19430B0C43EA0444A24502FA48
:1003E40007F200FA07F30BD91CEB040409F1FF3000
:1003F40080F08980A24540F28680A9F10209644414
:10040400A4EB0A04B4FBFEF00EFB104400FB08FA54
:1004140089B241EA0444A24508D91CEB040400F162
:10042400FF316CD2A2456AD90238644440EA0940DB
:10043400A0FB0289A4EB0A044C454146CE4655D3A1
:1004440052D0002E6AD05A1A64EB0E0404FA05F551
:1004540022FA07F3FC401D43C6E90054002748E78D
:100464003746304645E718463AE70F4621E79540B8
:10047400C2F1200321FA03F04FEA1548B0FBF8F764
:100484001FFA85F908FB170E24FA03FC914007FBB9
:1004940009FA4CEA0101080C40EA0E40824504FACC
:1004A40002F407D9281807F1FF332AD2824528D944
:1004B400023F2844A0EB0A00B0FBF8FC08FB1C0038
:1004C4000CFB09F389B241EA00418B4208D969184F
:1004D4000CF1FF3011D28B420FD9ACF1020C29443C
:1004E400C91A4CEA074714E74345AAD2B8EB0201FC
:1004F40069EB0C0201389646A3E78446F0E7084608
:1005040094E71F46D6E781467AE7384646E7AEF1D8
:10051400020E2B4411E702382C4422E73746E8E662
:10052400704700BF80B500AF084B1B68074A43F013
:1005340010031360032000F045F9002000F008F8D0
:1005440001F0A6FD0023184680BD00BF0020024034
:1005540080B582B000AF7860124B1A68124B1B78DA
:1005640019464FF47A73B3FBF1F3B2FBF3F3184675
:1005740000F05DF90346002B01D001230EE07B68F7
:100584000F2B0AD8002279684FF0FF3000F025F9CC
:10059400064A7B681360002300E0012318460837ED
:1005A400BD4680BD0800002004000020000000209B
:1005B40080B400AF054B1B781A46054B1B681344E7
:1005C400034A136000BFBD4680BC7047040000208E
:1005D4002800002080B400AF024B1B681846BD46BB
:1005E40080BC70472800002080B584B000AF7860DC
:1005F400FFF7F0FFB8607B68FB60FB68B3F1FF3F77
:1006040005D0094B1B781A46FB681344FB6000BFF6
:10061400FFF7E0FF0246BB68D31AFA689A42F7D89C
:1006240000BF1037BD4680BD0400002080B485B0F3
:1006340000AF78607B6803F00703FB600C4BDB685A
:10064400BB60BA684FF6FF031340BB60FB681A0235
:10065400BB68134343F0BF6343F40033BB60044AF5
:10066400BB68D36000BF1437BD4680BC704700BF71
:1006740000ED00E080B400AF044BDB681B0A03F01C
:1006840007031846BD4680BC704700BF00ED00E07C
:1006940080B483B000AF0346FB7197F90730002B99
:1006A4000BDBFB7903F01F02064997F907305B095E
:1006B400012000FA02F241F8232000BF0C37BD46A6
:1006C40080BC704700E100E080B483B000AF034613
:1006D4003960FB7197F90730002B0ADB3B68DAB20B
:1006E4000C4997F907301201D2B20B4483F8002366
:1006F4000AE03B68DAB20849FB7903F00F03043BD4
:100704001201D2B20B441A7600BF0C37BD4680BC2E
:10071400704700BF00E100E000ED00E080B489B064
:1007240000AFF860B9607A60FB6803F00703FB610F
:10073400FB69C3F10703042B28BF0423BB61FB69D6
:100744000433062B02D9FB69033B00E000237B61E1
:100754004FF0FF32BB6902FA03F3DA43BB681A4075
:100764007B699A404FF0FF317B6901FA03F3D94367
:100774007B680B40134318462437BD4680BC704742
:1007840080B582B000AF78607B68013BB3F1807FB5
:1007940001D301230FE00A4A7B68013B53600F2118
:1007A4004FF0FF30FFF790FF054B00229A60044B97
:1007B40007221A60002318460837BD4680BD00BFD3
:1007C40010E000E080B582B000AF78607868FFF791
:1007D4002DFF00BF0837BD4680BD80B586B000AF91
:1007E4000346B9607A60FB7300237B61FFF742FF25
:1007F40078617A68B9687869FFF790FF024697F9DB
:100804000F3011461846FFF75FFF00BF1837BD468B
:1008140080BD80B582B000AF0346FB7197F9073005
:100824001846FFF735FF00BF0837BD4680BD80B5C9
:1008340082B000AF78607868FFF7A2FF03461846DD
:100844000837BD4680BD000080B584B000AF786035
:100854000023FB737B6893F82130022B05D07B685F
:1008640004229A630123FB73D6E07B681B681A6831
:100874007B681B6822F00E021A607B681B681A688A
:100884007B681B6822F001021A607B681B681A46A9
:10089400644B9A4258D97B681B68634A93424FD091
:1008A4007B681B68614A934248D07B681B68604A36
:1008B400934240D07B681B685E4A934238D07B6881
:1008C4001B685D4A934230D07B681B685B4A934245
:1008D40028D07B681B68534A934220D07B681B68EE
:1008E400574A934219D07B681B68564A934212D0E8
:1008F4007B681B68544A93420AD07B681B68534A3E
:10090400934202D14FF480531BE04FF4803318E03C
:100914004FF4807315E0102313E0012311E04FF02E
:1009240080730EE04FF480130BE04FF4803308E043
:100934004FF4805305E04FF4807302E0102300E08D
:100944000123434A536057E07B681B68364A93424D
:100954004FD07B681B68354A934248D07B681B683C
:10096400334A934240D07B681B68324A934238D062
:100974007B681B68304A934230D07B681B682F4ADF
:10098400934228D07B681B68264A934220D07B6818
:100994001B682B4A934219D07B681B68294A9342EF
:1009A40012D07B681B68284A93420AD07B681B6874
:1009B400264A934202D14FF480531BE04FF4803314
:1009C40018E04FF4807315E0102313E0012311E0C5
:1009D4004FF080730EE04FF480130BE04FF480333C
:1009E40008E04FF4805305E04FF4807302E01023D5
:1009F40000E00123174A53607B68012283F8212019
:100A04007B68002283F820207B685B6B002B03D07B
:100A14007B685B6B78689847FB7B18461037BD464C
:100A240080BD00BF80000240080002401C0002405C
:100A34003000024044000240580002406C00024072
:100A4400080402401C0402403004024044040240F2
:100A5400000402400000024080B48BB000AF786014
:100A6400396000237B6200233B6227E101227B6A19
:100A740002FA03F3FB613B681B68FA691340BB612C
:100A8400BA69FB699A4240F016813B685B68122B95
:100A940034D0122B0DD8022B2BD0022B04D8002BD0
:100AA40031D0012B1CD048E0032B43D0112B1BD099
:100AB40043E0894A934226D0874A934206D8874A1C
:100AC400934220D0864A93421DD036E0854A934211
:100AD40019D0854A934216D0844A934213D02CE00D
:100AE4003B68DB683B6228E03B68DB6804333B62BD
:100AF40023E03B68DB6808333B621EE03B68DB684D
:100B04000C333B6219E03B689B68002B02D1042341
:100B14003B6212E03B689B68012B05D108233B62D2
:100B24007B68FA691A6108E008233B627B68FA690A
:100B34005A6102E000233B6200BFBB69FF2B01D86E
:100B44007B6801E07B6804337B61BB69FF2B02D8BF
:100B54007B6A9B0002E07B6A083B9B003B617B69EC
:100B64001A680F213B6901FA03F3DB431A40396A1F
:100B74003B6901FA03F31A437B691A603B685B68BB
:100B840003F08053002B00F09680594B9B69584A20
:100B940043F001039361564B9B6903F00103BB606F
:100BA400BB68544A7B6A9B08023352F82330FB60CB
:100BB4007B6A03F003039B000F2202FA03F3DB4377
:100BC400FA681340FB607B684B4A934213D07B68FE
:100BD4004A4A93420DD07B68494A934207D07B68C6
:100BE400484A934201D1032306E0042304E002238C
:100BF40002E0012300E000237A6A02F0030292007B
:100C04009340FA681343FB603A497B6A9B080233BA
:100C1400FA6841F823203B685B6803F48033002BB7
:100C240006D0394B1A683849BB6913430B6006E098
:100C3400354B1A68BB69DB43334913400B603B688F
:100C44005B6803F40033002B06D02F4B5A682E49FF
:100C5400BB6913434B6006E02B4B5A68BB69DB430B
:100C6400294913404B603B685B6803F48013002BF5
:100C740006D0254B9A682449BB6913438B6006E070
:100C8400214B9A68BB69DB431F4913408B603B6867
:100C94005B6803F40013002B06D01B4BDA681A4977
:100CA400BB691343CB6006E0174BDA68BB69DB43CF
:100CB40015491340CB607B6A01337B623B681A6839
:100CC4007B6A22FA03F3002B7FF4D0AE00BF2C37EB
:100CD400BD4680BC704700BF000021100000111009
:100CE4000000121000003110000032100000221029
:100CF400001002400000014000080140000C0140C7
:100D040000100140001401400004014080B483B08D
:100D140000AF78600B467B8013467B707B78002B9A
:100D240003D07A887B681A6103E07B881A047B68A5
:100D34001A6100BF0C37BD4680BC704780B483B0D5
:100D440000AF78600B467B807B68DA687B88134051
:100D5400002B03D07A887B685A6102E07A887B682A
:100D64001A6100BF0C37BD4680BC704780B586B0A1
:100D740000AF78607B68002B01D1012304E37B681A
:100D84001B6803F00103002B00F08780924B5B6823
:100D940003F00C03042B0CD08F4B5B6803F00C03A3
:100DA400082B12D18C4B5B6803F48033B3F5803F7E
:100DB4000BD1894B1B6803F40033002B6CD07B6888
:100DC4009B68002B68D10123DEE27B689B68B3F546
:100DD400803F06D1804B1B687F4A43F48033136005
:100DE4002EE07B689B68002B0CD17B4B1B687A4AF6
:100DF40023F480331360784B1B68774A23F48023F1
:100E040013601DE07B689B68B3F5A02F0CD1724B77
:100E14001B68714A43F4802313606F4B1B686E4A4E
:100E240043F4803313600BE06B4B1B686A4A23F472
:100E340080331360684B1B68674A23F48023136074
:100E44007B689B68002B13D0FFF7C4FB386108E074
:100E5400FFF7C0FB02463B69D31A642B01D9032375
:100E640092E25D4B1B6803F40033002BF0D014E0D6
:100E7400FFF7B0FB386108E0FFF7ACFB02463B69C3
:100E8400D31A642B01D903237EE2534B1B6803F46A
:100E94000033002BF0D100E000BF7B681B6803F037
:100EA4000203002B63D04C4B5B6803F00C03002B54
:100EB4000BD0494B5B6803F00C03082B1CD1464B49
:100EC4005B6803F48033002B16D1434B1B6803F09B
:100ED4000203002B05D07B685B69012B01D0012341
:100EE40052E23D4B1B6823F0F8027B689B69DB00F0
:100EF400394913430B603AE07B685B69002B20D0CF
:100F0400364B01221A60FFF765FB386108E0FFF7F2
:100F140061FB02463B69D31A022B01D9032333E256
:100F24002D4B1B6803F00203002BF0D02A4B1B68E7
:100F340023F0F8027B689B69DB00274913430B60AD
:100F440015E0264B00221A60FFF744FB386108E0E5
:100F5400FFF740FB02463B69D31A022B01D9032356
:100F640012E21D4B1B6803F00203002BF0D17B68D7
:100F74001B6803F00803002B3AD07B68DB69002B65
:100F840019D0174B01221A60FFF724FB386108E0DF
:100F9400FFF720FB02463B69D31A022B01D9032336
:100FA400F2E10D4B5B6A03F00203002BF0D0012049
:100FB40000F0CAFB1CE00A4B00221A60FFF70AFB90
:100FC40038610FE0FFF706FB02463B69D31A022B98
:100FD40008D90323D8E100BF0010024000004242B8
:100FE400800442429B4B5B6A03F00203002BE9D16D
:100FF4007B681B6803F00403002B00F0A680002329
:10100400FB75944BDB6903F08053002B0DD1914B9E
:10101400DB69904A43F08053D3618E4BDB6903F064
:101024008053BB60BB680123FB758B4B1B6803F4C7
:101034008073002B18D1884B1B68874A43F4807354
:101044001360FFF7C7FA386108E0FFF7C3FA0246F6
:101054003B69D31A642B01D9032395E17E4B1B68AA
:1010640003F48073002BF0D07B681B69012B06D13D
:10107400784B1B6A774A43F0010313622DE07B68C7
:101084001B69002B0CD1734B1B6A724A23F00103BA
:101094001362704B1B6A6F4A23F0040313621CE053
:1010A4007B681B69052B0CD16A4B1B6A694A43F0A8
:1010B40004031362674B1B6A664A43F0010313621D
:1010C4000BE0644B1B6A634A23F001031362614B18
:1010D4001B6A604A23F0040313627B681B69002BBC
:1010E40015D0FFF777FA38610AE0FFF773FA024682
:1010F4003B69D31A41F28832934201D9032343E175
:10110400544B1B6A03F00203002BEED014E0FFF7EC
:1011140061FA38610AE0FFF75DFA02463B69D31AC7
:1011240041F28832934201D903232DE1494B1B6AD2
:1011340003F00203002BEED1FB7D012B05D1454BBF
:10114400DB69444A23F08053D3617B68DB6A002B5C
:1011540000F08C803F4B5B6803F48033B3F5803F31
:101164000ED13C4B5B6803F00C03082B08D1394BC0
:10117400DB6A03F48033B3F5803F01D1012303E13B
:101184007B68DB6A022B4ED1324B1B6803F0805321
:10119400002B09D02F4BDB6A03F0F0027B685B6BFA
:1011A4009A4201D00123EFE02C4B00221A60FFF792
:1011B40011FA386108E0FFF70DFA02463B69D31AC9
:1011C400642B01D90323DFE0224B1B6803F0006387
:1011D400002BF0D11F4BDB6A23F0F0027B685B6BC2
:1011E4001C491343CB621B4BDB6A23F470627B689C
:1011F4001B6B18491343CB62184B01221A60FFF78B
:10120400E9F9386108E0FFF7E5F902463B69D31ACA
:10121400642B01D90323B7E00E4B1B6803F0006372
:10122400002BF0D022E00B4BDB6A0A4A23F4803314
:10123400D3620A4B00221A60FFF7CCF938610FE041
:10124400FFF7C8F902463B69D31A642B08D9032374
:101254009AE000BF00100240007000406800424263
:101264004B4B1B6803F00063002BE9D17B681B6ABE
:10127400002B00F08880464B5B6803F00C03082BBE
:1012840068D07B681B6A022B4DD1424B00221A6046
:10129400FFF7A0F9386108E0FFF79CF902463B69C3
:1012A400D31A022B01D903236EE0394B1B6803F0D8
:1012B4000073002BF0D17B685B6AB3F5803F0FD1DC
:1012C400334BDA6A7B685B6831491343CB62304B3A
:1012D400DB6A23F00F027B68DB682D491343CB6282
:1012E4002B4B5B6823F474127B68596A7B689B6A96
:1012F4000B43274913434B60264B01221A60FFF727
:1013040069F9386108E0FFF765F902463B69D31AC9
:10131400022B01D9032337E01D4B1B6803F0007334
:10132400002BF0D02FE01B4B00221A60FFF752F97C
:10133400386108E0FFF74EF902463B69D31A022BE5
:1013440001D9032320E0124B1B6803F00073002B28
:10135400F0D118E07B681B6A012B01D1012313E053
:101364000B4B5B68FB60FB6803F480327B685B6A51
:101374009A4206D1FB6803F470127B689B6A9A4216
:1013840001D0012300E0002318461837BD4680BD74
:10139400001002406000424280B584B000AF786023
:1013A40039607B68002B01D10123D0E06A4B1B68B4
:1013B40003F007033A689A4210D9674B1B6823F07D
:1013C400070265493B6813430B60634B1B6803F0DA
:1013D40007033A689A4201D00123B8E07B681B688E
:1013E40003F00203002B20D07B681B6803F0040386
:1013F400002B05D0594B5B68584A43F4E0635360B3
:101404007B681B6803F00803002B05D0534B5B6813
:10141400524A43F460535360504B5B6823F0F0022C
:101424007B689B684D4913434B607B681B6803F0E2
:101434000103002B40D07B685B68012B07D1474B2D
:101444001B6803F40033002B15D101237FE07B6874
:101454005B68022B07D1414B1B6803F00073002B20
:1014640009D1012373E03D4B1B6803F00203002BF9
:1014740001D101236BE0394B5B6823F003027B68E5
:101484005B68364913434B60FFF7A4F8F8600AE041
:10149400FFF7A0F80246FB68D31A41F28832934260
:1014A40001D9032353E02D4B5B6803F00C027B68E6
:1014B4005B689B009A42EBD1274B1B6803F0070340
:1014C4003A689A4210D2244B1B6823F0070222493F
:1014D4003B6813430B60204B1B6803F007033A6817
:1014E4009A4201D0012332E07B681B6803F00403B5
:1014F400002B08D0194B5B6823F4E0627B68DB683F
:10150400164913434B607B681B6803F00803002BE8
:1015140009D0124B5B6823F460527B681B69DB00C3
:101524000E4913434B6000F021F801460B4B5B68F6
:101534001B0903F00F030A4AD35C21FA03F3094A97
:101544001360094B1B681846FFF702F8002318467E
:101554001037BD4680BD00BF00200240001002408D
:10156400C82300080800002000000020F0B591B056
:1015740000AF564B07F114040FCB07C42380544B20
:101584003C1D0FCB84E80F0000237B6300233B63E7
:101594000023FB630023FB620023BB630023BB62C5
:1015A40000237B624B4B5B687B637B6B03F00C0318
:1015B400042B02D0082B03D07FE0474BBB637FE0B2
:1015C4007B6B9B0C03F00F0307F14002134413F8E9
:1015D4002C3CFB627B6B03F48033002B65D03D4BCA
:1015E400DB6A03F00F0307F14002134413F83C3C99
:1015F4003B63384BDB6A03F48033002B43D0354B19
:10160400DB6A1B0903F00F030133BB62314BDB6A56
:101614001B0A03F00F0302337B627B6A19464FF007
:101624000002FB6A4FF0000403FB02F501FB04F027
:101634002844A1FB033402191446274A02FB04F18F
:10164400002202FB03F20A442349A3FB0156931927
:101654001E46BB6A19464FF000023B6B4FF0000474
:1016640003FB02FC01FB04F06044A1FB03340219F8
:1016740014461A46234628463146FEF7D1FD034652
:101684000C46FB6307E0FB6A134A02FB03F23B6B65
:10169400B2FBF3F3FB6397F821301A46FB6A9342DB
:1016A40008D1FB6B5B08FB6304E0FB6A0B4A02FB9B
:1016B40003F3FB63FB6BBB6302E0094BBB6300BF3B
:1016C400BB6B18464437BD46F0BD00BFA8230008D5
:1016D400B82300080010024040787D0100093D0055
:1016E40000127A0080B400AF024B1B681846BD4656
:1016F40080BC70470800002080B500AFFFF7F2FF00
:101704000146054B5B681B0A03F00703034AD35CDD
:1017140021FA03F3184680BD00100240D8230008C4
:1017240080B500AFFFF7DEFF0146054B5B68DB0ABF
:1017340003F00703034AD35C21FA03F3184680BD80
:1017440000100240D823000880B485B000AF786050
:101754000A4B1B680A4AA2FB03235B0A7A6802FB52
:1017640003F3FB6000BFFB685A1EFA60002BF9D13B
:1017740000BF1437BD4680BC704700BF080000207E
:10178400D34D621080B582B000AF78607B68002BC7
:1017940001D101233FE07B6893F83930DBB2002BA1
:1017A40006D17B68002283F83820786800F0AAFC10
:1017B4007B68242283F839207B681B68DA687B689D
:1017C4001B6822F40052DA60786800F05FFA7B68E4
:1017D4001B681A697B681B6822F490421A617B6853
:1017E4001B685A697B681B6822F02A025A617B686D
:1017F4001B68DA687B681B6842F40052DA607B6815
:101804000022DA637B68202283F839207B68202257
:1018140083F83A20002318460837BD4680BD0000EF
:1018240080B588B000AF78607B681B681B68FB617B
:101834007B681B68DB68BB617B681B685B697B61D9
:1018440000233B610023FB60FB6903F00F033B6152
:101854003B69002B0DD1FB6903F02003002B08D05A
:10186400BB6903F02003002B03D0786800F08DF9E6
:10187400CCE03B69002B00F0AB807B6903F00103F3
:10188400002B05D1BB6903F49073002B00F0A080FA
:10189400FB6903F00103002B0AD0BB6903F48073D6
:1018A400002B05D07B68DB6B43F001027B68DA63B5
:1018B400FB6903F00403002B0AD07B6903F00103E6
:1018C400002B05D07B68DB6B43F002027B68DA6394
:1018D400FB6903F00203002B0AD07B6903F00103C8
:1018E400002B05D07B68DB6B43F004027B68DA6372
:1018F400FB6903F00803002B0AD07B6903F00103A2
:10190400002B05D07B68DB6B43F008027B68DA634D
:101914007B68DB6B002B78D0FB6903F02003002B82
:1019240007D0BB6903F02003002B02D0786800F0D5
:101934002CF97B681B685B6903F04003002B14BF20
:1019440001230023DBB2FB607B68DB6B03F008033D
:10195400002B02D1FB68002B31D0786800F077F8B7
:101964007B681B685B6903F04003002B23D07B6812
:101974001B685A697B681B6822F040025A617B68C5
:101984005B6B002B13D07B685B6B224A5A637B68CA
:101994005B6B1846FEF758FF0346002B16D07B6896
:1019A4005B6B5B6B7A68526B104698470EE0786805
:1019B40000F044F80AE0786800F040F806E078683F
:1019C40000F03CF87B680022DA631EE000BF1CE0F4
:1019D400FB6903F08003002B08D0BB6903F080038C
:1019E400002B03D0786800F063F80FE0FB6903F084
:1019F4004003002B0AD0BB6903F04003002B05D041
:101A0400786800F0AAF800BF00E000BF2037BD46A8
:101A140080BD00BF8D1A000880B483B000AF786029
:101A240000BF0C37BD4680BC704780B483B000AFA4
:101A3400786000BF0C37BD4680BC704780B483B06B
:101A440000AF786000BF0C37BD4680BC704780B4DF
:101A540083B000AF78607B681B68DA687B681B68BA
:101A640022F49072DA607B681B685A697B681B6891
:101A740022F001025A617B68202283F83A2000BFD9
:101A84000C37BD4680BC704780B584B000AF786029
:101A94007B685B6AFB60FB680022DA85FB680022D6
:101AA400DA84F868FFF7CAFF00BF1037BD4680BD6F
:101AB40080B485B000AF78607B6893F83930DBB2CE
:101AC400212B44D17B689B68B3F5805F1AD17B6876
:101AD4001B6AFB60FB681B881A467B681B68C2F3A1
:101AE40008025A607B681B69002B05D17B681B6A5E
:101AF4009A1C7B681A620EE07B681B6A5A1C7B681E
:101B04001A6208E07B681B6A591C7A6811621A78A9
:101B14007B681B685A607B68DB8C9BB2013B9BB281
:101B24007A681946D184002B0FD17B681B68DA6868
:101B34007B681B6822F08002DA607B681B68DA68C5
:101B44007B681B6842F04002DA60002300E0022355
:101B540018461437BD4680BC704780B582B000AFCC
:101B640078607B681B68DA687B681B6822F0400237
:101B7400DA607B68202283F839207868FFF74CFF0D
:101B8400002318460837BD4680BD80B584B000AF39
:101B940078607B6893F83A30DBB2222B71D17B6892
:101BA4009B68B3F5805F23D17B689B6AFB607B688D
:101BB4001B69002B0ED17B681B685B689BB2C3F367
:101BC40008039AB2FB681A807B689B6A9A1C7B683C
:101BD4009A6229E07B681B685B689BB2DBB29AB2AD
:101BE400FB681A807B689B6A5A1C7B689A621BE0BC
:101BF4007B681B69002B0AD17B681B6858687B686B
:101C04009B6A591C7A689162C2B21A700CE07B68B4
:101C14001B685B68DAB27B689B6A581C79688862C7
:101C240002F07F02D2B21A707B68DB8D9BB2013B5B
:101C34009BB27A681946D185002B20D17B681B683A
:101C4400DA687B681B6822F02002DA607B681B6814
:101C5400DA687B681B6822F48072DA607B681B6830
:101C64005A697B681B6822F001025A617B68202252
:101C740083F83A207868FFF7D8FE002302E00023B7
:101C840000E0022318461037BD4680BD80B584B0FD
:101C940000AF78607B681B681B6923F440517B6844
:101CA400DA687B681B680A431A617B689A687B68F8
:101CB4001B691A437B685B691343FB607B681B6881
:101CC400DB6823F4B05323F00C037A681268F968D4
:101CD4000B43D3607B681B685B6923F440717B68AA
:101CE4009A697B681B680A435A617B681B68524A7D
:101CF40093424ED1FFF714FDB860BA6813469B00B7
:101D040013449A001A447B685B689B00B2FBF3F3AC
:101D14004A4AA2FB03235B091901BA6813469B00D4
:101D240013449A001A447B685B689B00B2FBF3F28D
:101D3400424BA3FB02035B09642000FB03F3D31AA9
:101D44001B0132333D4AA2FB03235B0903F0F0037A
:101D54001944BA6813469B0013449A001A447B68DA
:101D64005B689B00B2FBF3F2344BA3FB02035B09F9
:101D7400642000FB03F3D31A1B0132332F4AA2FB66
:101D840003235B0903F00F027B681B680A449A6013
:101D94004DE0FFF7B1FCB860BA6813469B001344EA
:101DA4009A001A447B685B689B00B2FBF3F3234AF6
:101DB400A2FB03235B091901BA6813469B00134471
:101DC4009A001A447B685B689B00B2FBF3F21B4BDE
:101DD400A3FB02035B09642000FB03F3D31A1B017A
:101DE4003233164AA2FB03235B0903F0F0031944C0
:101DF400BA6813469B0013449A001A447B685B68D4
:101E04009B00B2FBF3F20D4BA3FB02035B096420BE
:101E140000FB03F3D31A1B013233084AA2FB03234A
:101E24005B0903F00F027B681B680A449A6000BFD9
:101E34001037BD4680BD00BF003801401F85EB51FF
:101E440080B500AFFEF76EFB00F01CF800F0C2F89E
:101E540000F06CF800F094F84FF400710848FEF7B5
:101E64006DFF4FF4FA70FEF7BFFB4FF48071044826
:101E7400FEF764FF4FF49670FEF7B6FBECE700BF85
:101E84000010014080B594B000AF07F11803382268
:101E94000021184600F071FA3B1D00221A605A60B6
:101EA4009A60DA601A610123BB614FF480333B62AC
:101EB40004237B620123FB624FF48033FB61022322
:101EC400BB634FF48033FB634FF4E0133B640223A2
:101ED4007B644FF4C063BB644023FB6407F11803C5
:101EE4001846FEF743FF0346002B01D000F0CAF862
:101EF4000F237B600223BB600023FB604FF48063ED
:101F04003B6100237B613B1D02211846FFF744FA25
:101F14000346002B01D000F0B5F8034B01221A60F0
:101F240000BF5037BD4680BD7000424280B500AF4F
:101F3400114B124A1A60104B4FF416525A600E4B52
:101F440000229A600C4B0022DA600B4B00221A61CB
:101F5400094B0C225A61084B4FF440729A61064BAC
:101F64000022DA610448FFF70DFC0346002B01D080
:101F740000F088F800BF80BD2C0000200044004021
:101F840080B500AF114B124A1A60104B4FF4165231
:101F94005A600E4B00229A600C4B0022DA600B4B05
:101FA40000221A61094B0C225A61084B00229A61E3
:101FB400064B0022DA610548FFF7E4FB0346002BD9
:101FC40001D000F05FF800BF80BD00BF6C000020AE
:101FD4000048004080B588B000AF07F1100300222C
:101FE4001A605A609A60DA60244B9B69234A43F072
:101FF40020039361214B9B6903F02003FB60FB6882
:102004001E4B9B691D4A43F0040393611B4B9B6960
:1020140003F00403BB60BB68184B9B69174A43F089
:1020240010039361154B9B6903F010037B607B687D
:10203400124B9B69114A43F0080393610F4B9B6950
:1020440003F008033B603B6800224FF474710C48B2
:10205400FEF75CFE4FF474733B6101237B61002344
:10206400BB610223FB6107F1100319460448FEF724
:10207400F3FC00BF2037BD4680BD00BF0010024006
:102084000010014080B400AF00BFBD4680BC704763
:1020940080B584B000AF194B9B69184A43F0010323
:1020A4009361164B9B6903F00103BB60BB68134B40
:1020B400DB69124A43F08053D361104BDB6903F0B0
:1020C40080537B607B68002200210520FEF785FB9E
:1020D4000520FEF79EFB0A4B5B68FB60FB6823F060
:1020E400E063FB60FB6843F00073FB60044AFB6839
:1020F400536000BF1037BD4680BD00BF00100240D2
:102104000000014080B58AB000AF786007F1180381
:1021140000221A605A609A60DA607B681B683F4A42
:10212400934238D13E4BDB693D4A43F40033D361DB
:102134003B4BDB6903F400337B617B69384B9B6960
:10214400374A43F004039361354B9B6903F004035E
:102154003B613B690923BB610023FB6100233B62B4
:1021640007F1180319462F48FEF776FC0623BB61D6
:102174000223FB6103237B6207F1180319462948F4
:10218400FEF76AFC002200212620FEF726FB26200B
:10219400FEF73FFB3EE07B681B68234A934239D13C
:1021A4001F4BDB691E4A43F48023D3611C4BDB695C
:1021B40003F48023FB60FB68194B9B69184A43F0C6
:1021C40008039361164B9B6903F00803BB60BB686B
:1021D4004FF48063BB610223FB6103237B6207F13D
:1021E400180319461148FEF737FC4FF40063BB612E
:1021F4000023FB6100233B6207F1180319460B48D7
:10220400FEF72AFC002200212720FEF7E6FA272009
:10221400FEF7FFFA00BF2837BD4680BD00440040EA
:10222400001002400008014000480040000C01403A
:1022340080B400AF00BFBD4680BC704780B400AF1F
:10224400FEE780B400AFFEE780B400AFFEE780B4E1
:1022540000AFFEE780B400AF00BFBD4680BC70474E
:1022640080B400AF00BFBD4680BC704780B400AFEF
:1022740000BFBD4680BC704780B500AFFEF798F93B
:1022840000BF80BD80B400AF00BFBD4680BC7047B6
:1022940080B500AF0248FFF7C3FA00BF80BD00BF9E
:1022A4002C00002080B500AF0248FFF7B9FA00BF48
:1022B40080BD00BF6C00002080B400AF1A4B1B68C7
:1022C400194A43F001031360174B5A681649174B18
:1022D40013404B60144B1B68134A23F0847323F49C
:1022E40080331360104B1B680F4A23F48023136060
:1022F4000D4B5B680C4A23F4FE0353600A4B1B68C6
:10230400094A23F0A0531360074B4FF47F029A60ED
:10231400054B0022DA62064B4FF000629A6000BF60
:10232400BD4680BC704700BF001002400000FFF0B3
:1023340000ED00E0002103E00A4B5B5843500431F8
:1023440009480A4B42189A42F6D3094A02E000238C
:1023540042F8043B074B9A42F9D3FFF7ADFFFFF76E
:102364006FFD7047F0230008000000200C000020DF
:102374000C000020AC000020FEE703460244934218
:1023840000D1704703F8011BF9E70000F8B500BF5E
:10239400F8BC08BC9E467047F8B500BFF8BC08BC42
:0423A4009E4670479A
:1023A800000004050607080900000000000D0000F1
:1023B8000102030405060708090A0B0C0D0E0F108D
:1023C80000000000000000000102030406070809DD
:0823D8000000000001020304F3
:0823E00074DEFF7F0100000024
:0423E80009020008DE
:0423EC00E5010008FF
:0C23F00010000000010000000024F400B8
:040000050800233993
:00000001FF
