:020000040800F2
:100000000000012055740008456C0008516C000880
:10001000576C00085D6C0008636C0008000000006D
:10002000000000000000000000000000696C0008F3
:10003000756C000800000000816C00088D6C0008E1
:10004000997400089974000899740008997400085C
:1000500099740008996C0008997400089974000854
:10006000997400089974000899740008997400083C
:10007000997400089974000899740008997400082C
:10008000997400089974000899740008997400081C
:10009000997400089974000899740008997400080C
:1000A00099740008997400089974000899740008FC
:1000B00099740008997400089974000899740008EC
:1000C00099740008997400089974000899740008DC
:1000D0009974000899740008A56C0008B96C0008B0
:1000E00099740008997400089974000800000000D1
:1000F0000000000000000000000000000000000000
:1001000000000000000000009974000899740008C5
:10011000997400089974000899740008997400088B
:10012000997400089974000899740008997400087B
:100130009974000800000000000000009974000895
:10014000997400089974000899740008CD6C00082F
:10015000000000000000000000000000000000009F
:10016000000000000000000000000000000000008F
:10017000000000000000000000000000000000007F
:10018000000000000000000000000000000000006F
:10019000000000000000000000000000000000005F
:1001A000000000000000000000000000000000004F
:1001B000000000000000000000000000000000003F
:1001C000000000000000000000000000000000002F
:1001D000000000000000000000000000000000001F
:0401E0005FF8E0F1F3
:1001E40010B5054C237833B9044B13B10448AFF36D
:1001F40000800123237010BDCC000020000000000B
:100204002C84000808B5034B1BB103490348AFF322
:10021400008008BD00000000D00000202C840008ED
:1002240053B94AB9002908BF00281CBF4FF0FF3159
:100234004FF0FF3000F074B9ADF1080C6DE904CE55
:1002440000F006F8DDF804E0DDE9022304B07047AD
:100254002DE9F0478C460446089E002B40F086802A
:100264008A42154648D9B2FA82F24AB1C2F120074D
:1002740001FA02F320FA07F7954047EA030C944089
:100284004FEA154EBCFBFEF71FFA85F80EFB17C3A9
:1002940007FB08F9210C41EA0343994509D9EB18F6
:1002A40007F1FF3180F0E180994540F2DE80023FA2
:1002B4002B44A3EB0903B3FBFEF00EFB103300FB4E
:1002C40008F1A4B244EA0344A14209D92C1900F16B
:1002D400FF3380F0C880A14240F2C58002382C442C
:1002E40040EA07400027641A1EB10023D440C6E93F
:1002F40000433946BDE8F087002A54D0B2FA82F2AE
:10030400002A40F0B4800127491B4FEA15481FFA20
:1003140085F9B1FBF8FE08FB1E1109FB0EF04FEA4C
:10032400144C4CEA0143984207D9EB180EF1FF3103
:1003340002D2984200F2EB808E461B1AB3FBF8F00F
:1003440008FB103309FB00F9A4B244EA0344A145B5
:1003540007D92C1900F1FF3302D2A14500F2DB804A
:100364001846A4EB090440EA0E40BDE78B4208D9C5
:10037400002E75D00027C6E9000138463946BDE88D
:10038400F087B3FA83F77FB98B4202D3824200F23B
:10039400BC80841A61EB030301209C46002EA8D084
:1003A400C6E9004CA5E7FFDEC7F12005BB4022FAF1
:1003B40005FC4CEA030C21FA05F44FEA1C4EB4FB8D
:1003C400FEF91FFA8CF80EFB194420FA05F3B94024
:1003D40009FB08FA19430B0C43EA0444A24502FA48
:1003E40007F200FA07F30BD91CEB040409F1FF3000
:1003F40080F08980A24540F28680A9F10209644414
:10040400A4EB0A04B4FBFEF00EFB104400FB08FA54
:1004140089B241EA0444A24508D91CEB040400F162
:10042400FF316CD2A2456AD90238644440EA0940DB
:10043400A0FB0289A4EB0A044C454146CE4655D3A1
:1004440052D0002E6AD05A1A64EB0E0404FA05F551
:1004540022FA07F3FC401D43C6E90054002748E78D
:100464003746304645E718463AE70F4621E79540B8
:10047400C2F1200321FA03F04FEA1548B0FBF8F764
:100484001FFA85F908FB170E24FA03FC914007FBB9
:1004940009FA4CEA0101080C40EA0E40824504FACC
:1004A40002F407D9281807F1FF332AD2824528D944
:1004B400023F2844A0EB0A00B0FBF8FC08FB1C0038
:1004C4000CFB09F389B241EA00418B4208D969184F
:1004D4000CF1FF3011D28B420FD9ACF1020C29443C
:1004E400C91A4CEA074714E74345AAD2B8EB0201FC
:1004F40069EB0C0201389646A3E78446F0E7084608
:1005040094E71F46D6E781467AE7384646E7AEF1D8
:10051400020E2B4411E702382C4422E73746E8E662
:10052400704700BF80B500AF084B1B68074A43F013
:1005340010031360032000F045F9002000F008F8D0
:1005440006F0AEFA0023184680BD00BF002002402A
:1005540080B582B000AF7860124B1A68124B1B78DA
:1005640019464FF47A73B3FBF1F3B2FBF3F3184675
:1005740000F05DF90346002B01D001230EE07B68F7
:100584000F2B0AD8002279684FF0FF3000F025F9CC
:10059400064A7B681360002300E0012318460837ED
:1005A400BD4680BD6400002004000020000000203F
:1005B40080B400AF054B1B781A46054B1B681344E7
:1005C400034A136000BFBD4680BC7047040000208E
:1005D400E800002080B400AF024B1B681846BD46FB
:1005E40080BC7047E800002080B584B000AF78601C
:1005F400FFF7F0FFB8607B68FB60FB68B3F1FF3F77
:1006040005D0094B1B781A46FB681344FB6000BFF6
:10061400FFF7E0FF0246BB68D31AFA689A42F7D89C
:1006240000BF1037BD4680BD0400002080B485B0F3
:1006340000AF78607B6803F00703FB600C4BDB685A
:10064400BB60BA684FF6FF031340BB60FB681A0235
:10065400BB68134343F0BF6343F40033BB60044AF5
:10066400BB68D36000BF1437BD4680BC704700BF71
:1006740000ED00E080B400AF044BDB681B0A03F01C
:1006840007031846BD4680BC704700BF00ED00E07C
:1006940080B483B000AF0346FB7197F90730002B99
:1006A4000BDBFB7903F01F02064997F907305B095E
:1006B400012000FA02F241F8232000BF0C37BD46A6
:1006C40080BC704700E100E080B483B000AF034613
:1006D4003960FB7197F90730002B0ADB3B68DAB20B
:1006E4000C4997F907301201D2B20B4483F8002366
:1006F4000AE03B68DAB20849FB7903F00F03043BD4
:100704001201D2B20B441A7600BF0C37BD4680BC2E
:10071400704700BF00E100E000ED00E080B489B064
:1007240000AFF860B9607A60FB6803F00703FB610F
:10073400FB69C3F10703042B28BF0423BB61FB69D6
:100744000433062B02D9FB69033B00E000237B61E1
:100754004FF0FF32BB6902FA03F3DA43BB681A4075
:100764007B699A404FF0FF317B6901FA03F3D94367
:100774007B680B40134318462437BD4680BC704742
:1007840080B582B000AF78607B68013BB3F1807FB5
:1007940001D301230FE00A4A7B68013B53600F2118
:1007A4004FF0FF30FFF790FF054B00229A60044B97
:1007B40007221A60002318460837BD4680BD00BFD3
:1007C40010E000E080B582B000AF78607868FFF791
:1007D4002DFF00BF0837BD4680BD80B586B000AF91
:1007E4000346B9607A60FB7300237B61FFF742FF25
:1007F40078617A68B9687869FFF790FF024697F9DB
:100804000F3011461846FFF75FFF00BF1837BD468B
:1008140080BD80B582B000AF0346FB7197F9073005
:100824001846FFF735FF00BF0837BD4680BD80B5C9
:1008340082B000AF78607868FFF7A2FF03461846DD
:100844000837BD4680BD000080B584B000AF786035
:100854000023FB737B6893F82130022B05D07B685F
:1008640004229A630123FB73D6E07B681B681A6831
:100874007B681B6822F00E021A607B681B681A688A
:100884007B681B6822F001021A607B681B681A46A9
:10089400644B9A4258D97B681B68634A93424FD091
:1008A4007B681B68614A934248D07B681B68604A36
:1008B400934240D07B681B685E4A934238D07B6881
:1008C4001B685D4A934230D07B681B685B4A934245
:1008D40028D07B681B68534A934220D07B681B68EE
:1008E400574A934219D07B681B68564A934212D0E8
:1008F4007B681B68544A93420AD07B681B68534A3E
:10090400934202D14FF480531BE04FF4803318E03C
:100914004FF4807315E0102313E0012311E04FF02E
:1009240080730EE04FF480130BE04FF4803308E043
:100934004FF4805305E04FF4807302E0102300E08D
:100944000123434A536057E07B681B68364A93424D
:100954004FD07B681B68354A934248D07B681B683C
:10096400334A934240D07B681B68324A934238D062
:100974007B681B68304A934230D07B681B682F4ADF
:10098400934228D07B681B68264A934220D07B6818
:100994001B682B4A934219D07B681B68294A9342EF
:1009A40012D07B681B68284A93420AD07B681B6874
:1009B400264A934202D14FF480531BE04FF4803314
:1009C40018E04FF4807315E0102313E0012311E0C5
:1009D4004FF080730EE04FF480130BE04FF480333C
:1009E40008E04FF4805305E04FF4807302E01023D5
:1009F40000E00123174A53607B68012283F8212019
:100A04007B68002283F820207B685B6B002B03D07B
:100A14007B685B6B78689847FB7B18461037BD464C
:100A240080BD00BF80000240080002401C0002405C
:100A34003000024044000240580002406C00024072
:100A4400080402401C0402403004024044040240F2
:100A5400000402400000024080B48BB000AF786014
:100A6400396000237B6200233B6227E101227B6A19
:100A740002FA03F3FB613B681B68FA691340BB612C
:100A8400BA69FB699A4240F016813B685B68122B95
:100A940034D0122B0DD8022B2BD0022B04D8002BD0
:100AA40031D0012B1CD048E0032B43D0112B1BD099
:100AB40043E0894A934226D0874A934206D8874A1C
:100AC400934220D0864A93421DD036E0854A934211
:100AD40019D0854A934216D0844A934213D02CE00D
:100AE4003B68DB683B6228E03B68DB6804333B62BD
:100AF40023E03B68DB6808333B621EE03B68DB684D
:100B04000C333B6219E03B689B68002B02D1042341
:100B14003B6212E03B689B68012B05D108233B62D2
:100B24007B68FA691A6108E008233B627B68FA690A
:100B34005A6102E000233B6200BFBB69FF2B01D86E
:100B44007B6801E07B6804337B61BB69FF2B02D8BF
:100B54007B6A9B0002E07B6A083B9B003B617B69EC
:100B64001A680F213B6901FA03F3DB431A40396A1F
:100B74003B6901FA03F31A437B691A603B685B68BB
:100B840003F08053002B00F09680594B9B69584A20
:100B940043F001039361564B9B6903F00103BB606F
:100BA400BB68544A7B6A9B08023352F82330FB60CB
:100BB4007B6A03F003039B000F2202FA03F3DB4377
:100BC400FA681340FB607B684B4A934213D07B68FE
:100BD4004A4A93420DD07B68494A934207D07B68C6
:100BE400484A934201D1032306E0042304E002238C
:100BF40002E0012300E000237A6A02F0030292007B
:100C04009340FA681343FB603A497B6A9B080233BA
:100C1400FA6841F823203B685B6803F48033002BB7
:100C240006D0394B1A683849BB6913430B6006E098
:100C3400354B1A68BB69DB43334913400B603B688F
:100C44005B6803F40033002B06D02F4B5A682E49FF
:100C5400BB6913434B6006E02B4B5A68BB69DB430B
:100C6400294913404B603B685B6803F48013002BF5
:100C740006D0254B9A682449BB6913438B6006E070
:100C8400214B9A68BB69DB431F4913408B603B6867
:100C94005B6803F40013002B06D01B4BDA681A4977
:100CA400BB691343CB6006E0174BDA68BB69DB43CF
:100CB40015491340CB607B6A01337B623B681A6839
:100CC4007B6A22FA03F3002B7FF4D0AE00BF2C37EB
:100CD400BD4680BC704700BF000021100000111009
:100CE4000000121000003110000032100000221029
:100CF400001002400000014000080140000C0140C7
:100D040000100140001401400004014080B483B08D
:100D140000AF78600B467B8013467B707B78002B9A
:100D240003D07A887B681A6103E07B881A047B68A5
:100D34001A6100BF0C37BD4680BC7047F0B58FB058
:100D44000AAF78607B68002B01D1012354E07B68F3
:100D54001B68FB607B6893F8B932DBB2002B06D1C9
:100D64007B68002283F8B822786806F003F97B6870
:100D7400032283F8B922FB68DB6B03F48073002B36
:100D840002D17B6800221A617B681B68184602F056
:100D94008BFE7B681B683B607E686D4606F1100421
:100DA4000FCC0FC50FCC0FC594E8030085E80300F2
:100DB400331D0ECB386802F01FFE7B681B680121CF
:100DC400184602F081FE7B681B683B607E686D46B6
:100DD40006F110040FCC0FC50FCC0FC594E8030027
:100DE40085E80300331D0ECB386802F085FF7B686D
:100DF400012283F8B922002318461437BD46F0BDFA
:100E040090B589B004AF7860084611461A46034687
:100E1400FB700B46BB7013467B707B6893F8B8324B
:100E2400012B01D102237FE07B68012283F8B822E1
:100E3400FA78796813469B001344DB000B443D3376
:100E440000221A70FA78796813469B001344DB0079
:100E54000B4438337A781A70FA78796813469B0011
:100E64001344DB000B4440333A8D1A80FA787968D6
:100E740013469B001344DB000B443933FA781A7091
:100E8400FA78796813469B001344DB000B443F3324
:100E940097F824201A70FA78BB7803F07F03D8B24D
:100EA400796813469B001344DB000B443A33024633
:100EB4001A7097F90230002B0ADAFA787968134627
:100EC4009B001344DB000B443B3301221A7009E0FE
:100ED400FA78796813469B001344DB000B443B33D8
:100EE40000221A70FA78796813469B001344DB00D9
:100EF4000B443C3397F820201A707B6818687C7880
:100F0400BA78F9783B8D029397F82430019397F8D7
:100F140020300093234603F02FF80346FB737B68CD
:100F2400002283F8B822FB7B18461437BD4690BDD7
:100F340080B584B000AF78600B46FB700023FB7370
:100F44007B6893F8B832012B01D102230FE07B6850
:100F5400012283F8B8227B681B68FA781146184688
:100F640003F00CFA7B68002283F8B822FB7B184656
:100F74001037BD4680BD000080B582B000AF7860F8
:100F8400084611461A460346FB700B46BB701346CF
:100F94007B70FA78796813469B001344DB000B449A
:100FA4003B33BA781A70FA78796813469B00134475
:100FB400DB000B443F337A781A703B7C002B14D14E
:100FC400FA78796813469B001344DB000B444233E0
:100FD40003221A70FA78796813469B001344DB00E5
:100FE4000B443D333A7F1A7009E0FA787968134666
:100FF4009B001344DB000B44423302221A707B78BB
:10100400032B00F2D68001A252F823F0211000082D
:10101400A11100088D100008171100083B7C012B5A
:1010240040F0C980BB78002B40F0C5803B8B002B7F
:1010340009D1FA78796813469B001344DB000B440A
:10104400513301221A70FA78796813469B001344CD
:10105400DB000B4451331B78002B0AD1FA787968F2
:1010640013469B001344DB000B44423300221A70E6
:10107400A1E0FA78796813469B001344DB000B4423
:10108400423302221A7096E0BB78002B20D1FA7802
:10109400796813469B001344DB000B4451331B78DF
:1010A400002B0AD1FA78796813469B001344DB00BD
:1010B4000B44423300221A707EE0FA7879681346B2
:1010C4009B001344DB000B44423302221A7073E08A
:1010D400FA78796813469B001344DB000B445033C1
:1010E4001B78002B0AD1FA78796813469B001344C5
:1010F400DB000B44423300221A705DE0FA78796811
:1011040013469B001344DB000B44423302221A7043
:1011140052E0BB78002B20D1FA78796813469B0003
:101124001344DB000B4451331B78002B0AD1FA78AB
:10113400796813469B001344DB000B4442330022BE
:101144001A7039E0FA78796813469B001344DB007F
:101154000B44423302221A702EE0FA78796813465F
:101164009B001344DB000B4450331B78002B0AD143
:10117400FA78796813469B001344DB000B4442332E
:1011840000221A7018E0FA78796813469B00134419
:10119400DB000B44423302221A700DE0FA787968BE
:1011A40013469B001344DB000B44423300221A70A5
:1011B40002E000BF00E000BFFA78796813469B00A4
:1011C4001344DB000B4444337A691A60FA78398B90
:1011D400786813469B001344DB00034448331960CA
:1011E400FA78796813469B001344DB000B445C33A4
:1011F40000221A70FA78796813469B001344DB00C6
:101204000B444C3300221A60FA78796813469B0029
:101214001344DB000B443933FA781A70FA7879688E
:1012240013469B001344DB000B445D3300221A7009
:101234007B681868FA7813469B001344DB00383344
:101244007A681344194602F089FF034618460837A2
:10125400BD4680BD80B586B000AF78607B681B68F2
:101264003B613B69FB607B681B68184602F004FD28
:101274000346012B40F0EF807B681B68184602F0A0
:10128400E9FC0346002B00F0E5807B681B681846E8
:1012940002F0E0FC034603F40013B3F5001F04D18D
:1012A4007B681B684FF400125A617B681B68184600
:1012B40002F0D0FC034603F48013B3F5801F04D17D
:1012C4007B681B684FF480125A617B681B68184660
:1012D40002F0C0FC034603F08063B3F1806F04D1D5
:1012E4007B681B684FF080625A617B681B681846F4
:1012F40002F0B0FC034603F00203022B03D17B6827
:101304001B6802225A617B681B68184602F0A2FC23
:10131400034603F00053B3F1005F15D17B681B68EB
:101324004FF000525A61FB6803F588631B6803F0B1
:101334000103002B08D1786805F07EFE7B681B68EA
:101344000121184602F056FD7B681B68184602F01E
:1013540081FC034603F08073B3F1807F02D1786887
:1013640001F0AAF87B681B68184602F073FC034678
:1013740003F00803082B06D1786805F041FE7B686A
:101384001B6808225A617B681B68184602F062FCDD
:10139400034603F00073B3F1007F38D17B681B6808
:1013A400184602F0DBFFB86000237B6125E07B690F
:1013B40003F00F03BA6822FA03F303F00103002BCE
:1013C40018D07B695A01FB68134403F5A0631B68BA
:1013D40003F40043B3F5004F06D17B69DBB2194631
:1013E400786800F0CDF805E07B69DBB219467868CF
:1013F40000F05FFC7B6901337B617B689B687A69E1
:101404009A42D4D37B681B684FF000725A617B68A0
:101414001B68184602F01EFC034603F01003102B51
:1014240001D1012300E00023002B14D07B681B684A
:101434009A697B681B6822F010029A61786800F050
:101444008DFF7B681B689A697B681B6842F01002F9
:101454009A6100E000BF1837BD4680BD80B582B0F8
:1014640000AF78607B6893F8B832012B01D1022376
:1014740013E07B68012283F8B8227B681B68184656
:1014840002F002FB7B681B680121184602F015FD7F
:101494007B68002283F8B822002318460837BD462B
:1014A40080BD80B582B000AF78607B6893F8B832B5
:1014B400012B01D102230DE07B68012283F8B822BD
:1014C4007B681B68184603F057F87B68002283F892
:1014D400B822002318460837BD4680BD80B582B0C7
:1014E40000AF78607B681B68184602F0BCFC0346BA
:1014F40018460837BD4680BD80B483B000AF78601D
:101504000B46FB70FA78796813469B001344DB00A2
:101514000B445C331B7818460C37BD4680BC7047BF
:1015240080B483B000AF78600B46FB70FA787968BA
:1015340013469B001344DB000B444C331B681846D2
:101544000C37BD4680BC704780B582B000AF786070
:101554007B681B68184602F0FEFC034618460837F1
:10156400BD4680BD80B582B000AF78607B681B68E3
:10157400184602F0DAFC034618460837BD4680BD1B
:1015840080B586B000AF78600B46FB707B681B6843
:101594007B617B693B61FB78FB60FB685A013B69BB
:1015A400134403F5A0639B6803F00403042B19D1CF
:1015B400FB685A013B69134403F5A0631A460423EC
:1015C4009360FB685A013B69134403F5A063DB682D
:1015D400FA6851013A690A4402F5A06243F0020331
:1015E400D36095E0FB685A013B69134403F5A0639B
:1015F4009B6803F02003202B09D1FB685A013B6947
:10160400134403F5A0631A462023936080E0FB682B
:101614005A013B69134403F5A0639B6803F0080374
:10162400082B34D1FB685A013B69134403F5A063CA
:10163400DB68FA6851013A690A4402F5A06243F092
:101644000203D3607968FA6813469B001344DB00F5
:101654000B445D3305221A70FB685A013B6913443D
:1016640003F5A0631A4610239360FB685A013B6993
:10167400134403F5A0631A46082393607B681B6830
:10168400FA68D2B21146184602F078FE40E0FB68D0
:101694005A013B69134403F5A0639B6803F4806318
:1016A400B3F5806F34D1FB685A013B69134403F5E9
:1016B400A063DB68FA6851013A690A4402F5A06242
:1016C40043F00203D3607B681B68FA68D2B2114608
:1016D400184602F053FEFB685A013B69134403F5B4
:1016E400A0631A46102393607968FA6813469B0036
:1016F4001344DB000B445D3308221A70FB685A0163
:101704003B69134403F5A0631A464FF48063936066
:10171400FB685A013B69134403F5A0639B6803F417
:101724000073B3F5007F22D1FB685A013B6913446F
:1017340003F5A063DB68FA6851013A690A4402F5CB
:10174400A06243F00203D3607B681B68FA68D2B2DC
:101754001146184602F012FEFB685A013B69134415
:1017640003F5A0631A464FF4007393609DE2FB688F
:101774005A013B69134403F5A0639B6803F001031A
:10178400012B40F0C7807968FA6813469B00134424
:10179400DB000B445D3301221A707968FA68134642
:1017A4009B001344DB000B44583300221A60FB688F
:1017B4005A013B69134403F5A0631A46012393605D
:1017C4007968FA6813469B001344DB000B443F33EB
:1017D4001B78002B0AD07968FA6813469B001344DF
:1017E400DB000B443F331B78022B21D1FB685A01E9
:1017F4003B69134403F5A063DB68FA6851013A6955
:101804000A4402F5A06243F00203D3607B681B68BC
:10181400FA68D2B21146184602F0B0FDFB685A01CC
:101824003B69134403F5A0631A46102393605AE0FE
:101834007968FA6813469B001344DB000B443F337A
:101844001B78032B2AD1FB685A013B69134403F527
:10185400A0631B68FA6851013A690A4402F5A06260
:1018640043F0005313607968FA6813469B001344ED
:10187400DB000B445C3301221A70FB68D8B2796830
:10188400FA6813469B001344DB000B445C331B785B
:101894001A460146786805F0DDFB24E07968FA68A9
:1018A40013469B001344DB000B443F331B78012B8E
:1018B40019D17968FA6813469B001344DB000B4482
:1018C4005C3301221A70FB68D8B27968FA6813464F
:1018D4009B001344DB000B445C331B781A4601461F
:1018E400786805F0B7FB7968FA6813469B001344DF
:1018F400DB000B4450331B7883F00103D8B27968C2
:10190400FA6813469B001344DB000B445033024631
:101914001A70CAE1FB685A013B69134403F5A063DA
:101924009B6803F00203022B40F0F180FB685A012C
:101934003B69134403F5A063DB68FA6851013A6913
:101944000A4402F5A06223F00203D3607968FA68BE
:1019540013469B001344DB000B445D331B78012BBF
:101964000AD17968FA6813469B001344DB000B44E0
:101974005C3301221A70B0E07968FA6813469B0060
:101984001344DB000B445D331B78052B0AD17968C3
:10199400FA6813469B001344DB000B445C330522B6
:1019A4001A709AE07968FA6813469B001344DB00C6
:1019B4000B445D331B78062B0AD07968FA6813460A
:1019C4009B001344DB000B445D331B78082B56D17A
:1019D4007968FA6813469B001344DB000B445833C0
:1019E4001B68591C7868FA6813469B001344DB0093
:1019F4000344583319607968FA6813469B0013440A
:101A0400DB000B4458331B68032B14D97968FA683C
:101A140013469B001344DB000B44583300221A6026
:101A24007968FA6813469B001344DB000B445C336B
:101A340004221A7009E07968FA6813469B0013447B
:101A4400DB000B445C3302221A70FB685A013B69C9
:101A5400134403F5A0631B68BB60BB6823F0804399
:101A6400BB60BB6843F00043BB60FB685A013B6941
:101A7400134403F5A0631A46BB6813602DE079682C
:101A8400FA6813469B001344DB000B445D331B7858
:101A9400032B22D17968FA6813469B001344DB00B8
:101AA4000B445C3302221A70FB685A013B691344ED
:101AB40003F5A0631B68BB60BB6823F08043BB6075
:101AC400BB6843F00043BB60FB685A013B691344A5
:101AD40003F5A0631A46BB681360FB685A013B69AF
:101AE400134403F5A0631A4602239360FB68D8B23B
:101AF4007968FA6813469B001344DB000B445C339B
:101B04001B781A460146786805F0A4FACDE0FB6814
:101B14005A013B69134403F5A0639B6803F08003F7
:101B2400802B3ED1FB685A013B69134403F5A06343
:101B3400DB68FA6851013A690A4402F5A06243F08D
:101B44000203D3607968FA6813469B001344DB00F0
:101B54000B4458331B68591C7868FA6813469B0079
:101B64001344DB000344583319607968FA68134658
:101B74009B001344DB000B445D3306221A707B6820
:101B84001B68FA68D2B21146184602F0F7FBFB68EC
:101B94005A013B69134403F5A0631A4680239360FA
:101BA40083E0FB685A013B69134403F5A0639B6817
:101BB40003F01003102B78D17968FA6813469B0060
:101BC4001344DB000B443F331B78032B22D1796889
:101BD400FA6813469B001344DB000B44583300227D
:101BE4001A60FB685A013B69134403F5A063DB6880
:101BF400FA6851013A690A4402F5A06243F002030B
:101C0400D3607B681B68FA68D2B21146184602F0AA
:101C1400B5FB41E07968FA6813469B001344DB0086
:101C24000B443F331B78002B0AD07968FA681346BB
:101C34009B001344DB000B443F331B78022B2BD156
:101C44007968FA6813469B001344DB000B4458334D
:101C540000221A607968FA6813469B001344DB007B
:101C64000B445D3303221A70FB685A013B69134429
:101C740003F5A063DB68FA6851013A690A4402F586
:101C8400A06243F00203D3607B681B68FA68D2B297
:101C94001146184602F072FBFB685A013B69134473
:101CA40003F5A0631A461023936000BF1837BD469E
:101CB40080BD80B586B000AF78600B46FB707B6852
:101CC4001B687B617B693B61FB78FB60FB685A01A5
:101CD4003B69134403F5A0639B6803F00403042BDE
:101CE40019D1FB685A013B69134403F5A0631A46F2
:101CF40004239360FB685A013B69134403F5A06312
:101D0400DB68FA6851013A690A4402F5A06243F0BB
:101D14000203D3601EE3FB685A013B69134403F5D5
:101D2400A0639B6803F02003202B41D1FB685A0178
:101D34003B69134403F5A0631A4620239360796832
:101D4400FA6813469B001344DB000B443D331B78B5
:101D5400012B40F0FF827968FA6813469B00134414
:101D6400DB000B443D3300221A707968FA6813468D
:101D74009B001344DB000B445C3302221A70FB68A3
:101D84005A013B69134403F5A063DB68FA68510107
:101D94003A690A4402F5A06243F00203D3607B6807
:101DA4001B68FA68D2B21146184602F0E7FAD1E28B
:101DB400FB685A013B69134403F5A0639B6803F075
:101DC4004003402B3FD17968FA6813469B001344C3
:101DD400DB000B445D3304221A707968FA681346F9
:101DE4009B001344DB000B443D3301221A707968D5
:101DF400FA6813469B001344DB000B44583300225B
:101E04001A60FB685A013B69134403F5A063DB685D
:101E1400FA6851013A690A4402F5A06243F00203E8
:101E2400D3607B681B68FA68D2B21146184602F088
:101E3400A5FAFB685A013B69134403F5A0631A46EB
:101E44004023936086E2FB685A013B69134403F51F
:101E5400A0639B6803F40073B3F5007F22D1FB6891
:101E64005A013B69134403F5A063DB68FA68510126
:101E74003A690A4402F5A06243F00203D3607B6826
:101E84001B68FA68D2B21146184602F077FAFB686A
:101E94005A013B69134403F5A0631A464FF40073D7
:101EA400936057E2FB685A013B69134403F5A0634E
:101EB4009B6803F00103012B35D17968FA68134656
:101EC4009B001344DB000B44583300221A60FB6868
:101ED4005A013B69134403F5A063DB68FA685101B6
:101EE4003A690A4402F5A06243F00203D3607B68B6
:101EF4001B68FA68D2B21146184602F03FFAFB6832
:101F04005A013B69134403F5A0631A460123936005
:101F14007968FA6813469B001344DB000B445D3375
:101F240001221A7016E2FB685A013B69134403F557
:101F3400A0639B6803F00803082B2BD1FB685A01AC
:101F44003B69134403F5A0631A4608239360FB68B6
:101F54005A013B69134403F5A063DB68FA68510135
:101F64003A690A4402F5A06243F00203D3607B6835
:101F74001B68FA68D2B21146184602F0FFF9796874
:101F8400FA6813469B001344DB000B445D330522BF
:101F94001A70DFE1FB685A013B69134403F5A0633F
:101FA4009B6803F01003102B35D17968FA68134647
:101FB4009B001344DB000B44583300221A607968F9
:101FC400FA6813469B001344DB000B445D33032281
:101FD4001A70FB685A013B69134403F5A063DB687C
:101FE400FA6851013A690A4402F5A06243F0020317
:101FF400D3607B681B68FA68D2B21146184602F0B7
:10200400BDF9FB685A013B69134403F5A0631A4602
:10201400102393609EE1FB685A013B69134403F566
:10202400A0639B6803F08003802B2BD1FB685A01CB
:102034003B69134403F5A063DB68FA6851013A690C
:102044000A4402F5A06243F00203D3607B681B6874
:10205400FA68D2B21146184602F090F97968FA6823
:1020640013469B001344DB000B445D3306221A70B5
:10207400FB685A013B69134403F5A0631A468023A5
:10208400936067E1FB685A013B69134403F5A0635D
:102094009B6803F48063B3F5806F35D1FB685A0104
:1020A4003B69134403F5A063DB68FA6851013A699C
:1020B4000A4402F5A06243F00203D3607B681B6804
:1020C400FA68D2B21146184602F058F9FB685A0170
:1020D4003B69134403F5A0631A4610239360FB681D
:1020E4005A013B69134403F5A0631A464FF4806315
:1020F40093607968FA6813469B001344DB000B4431
:102104005D3308221A7025E1FB685A013B691344C8
:1021140003F5A0639B6803F00203022B40F01A81CD
:10212400FB685A013B69134403F5A063DB68FA6852
:1021340051013A690A4402F5A06223F00203D36014
:102144007968FA6813469B001344DB000B445D3343
:102154001B78012B37D17968FA6813469B00134426
:10216400DB000B445C3301221A707968FA68134669
:102174009B001344DB000B443F331B78022B0BD032
:102184007968FA6813469B001344DB000B443F3321
:102194001B78032B40F0C5807968FA6813469B00CE
:1021A4001344DB000B4451331B7883F00103D8B292
:1021B4007968FA6813469B001344DB000B445133DF
:1021C40002461A70ADE07968FA6813469B0013441E
:1021D400DB000B445D331B78032B0AD17968FA6862
:1021E40013469B001344DB000B445C3302221A7039
:1021F40097E07968FA6813469B001344DB000B44AC
:102204005D331B78042B0AD17968FA6813469B0066
:102214001344DB000B445C3302221A7081E07968BA
:10222400FA6813469B001344DB000B445D331B78B0
:10223400052B0AD17968FA6813469B001344DB0026
:102244000B445C3305221A706BE07968FA68134614
:102254009B001344DB000B445D331B78062B0AD030
:102264007968FA6813469B001344DB000B445D3322
:102274001B78082B55D17968FA6813469B001344E0
:10228400DB000B4458331B68591C7868FA68134602
:102294009B001344DB000344583319607968FA68DF
:1022A40013469B001344DB000B4458331B68032B79
:1022B40014D97968FA6813469B001344DB000B4475
:1022C400583300221A607968FA6813469B00134455
:1022D400DB000B445C3304221A7009E07968FA6865
:1022E40013469B001344DB000B445C3302221A7038
:1022F400FB685A013B69134403F5A0631B68BB6088
:10230400BB6823F08043BB60BB6843F00043BB6001
:10231400FB685A013B69134403F5A0631A46BB6882
:102324001360FB685A013B69134403F5A0631A4622
:1023340002239360FB68D8B27968FA6813469B005D
:102344001344DB000B445C331B781A46014678685F
:1023540004F080FE00BF1837BD4680BD80B58AB04A
:1023640000AF78607B681B687B627B6A3B627B683A
:102374001B681B6AFB61FB6903F00F03BB61FB690C
:102384005B0C03F00F037B61FB691B09C3F30A03B6
:102394003B617B69022B04D07B69052B00F08280B2
:1023A40083E03B69002B7FD07968BA6913469B00B0
:1023B4001344DB000B4444331B68002B74D07B684C
:1023C40018687968BA6913469B001344DB000B4410
:1023D40044331B683A6992B2194601F013FC7968D8
:1023E400BA6913469B001344DB000B4444331A6858
:1023F4003B69D1187868BA6913469B001344DB0023
:102404000344443319607968BA6913469B00134442
:10241400DB000B444C331A683B69D1187868BA69FD
:1024240013469B001344DB0003444C331960BB691F
:102434005A013B6A134403F5A0631A691D4B134008
:10244400002B31D0BB695A013B6A134403F5A063E6
:102454001B68FB60FB6823F08043FB60FB6843F070
:102464000043FB60BB695A013B6A134403F5A06354
:102474001A46FB6813607968BA6913469B001344D3
:10248400DB000B4450331B7883F00103D8B2796826
:10249400BA6913469B001344DB000B4450330246D5
:1024A4001A7001E000BF00E000BF00BF2837BD463E
:1024B40080BD00BF0000F81F80B586B000AF786013
:1024C4007B681B687B617B693B613B6903F58863BF
:1024D4001B68FB603B6903F588631B68BB60BB68D2
:1024E40023F02E03BB60FB6803F00203022B0BD125
:1024F400FB6803F00103012B02D1786804F08EFD20
:10250400BB6843F00203BB60FB6803F00803082BBD
:1025140032D1BB6843F00803BB60FB6803F00403DB
:10252400042B26D17B689B69022B13D1FB6803F42F
:10253400C023B3F5802F06D17B681B68022118469F
:1025440001F058FC11E07B681B680121184601F07A
:1025540051FC0AE07B68DB68012B06D13B6903F57B
:1025640080631A464EF660235360786804F0E6FCF4
:1025740002E0786804F0F0FCFB6803F02003202BF1
:1025840003D1BB6843F02003BB603B6903F5886358
:102594001A46BB68136000BF1837BD4680BD0000F3
:1025A40080B586B000AF78607B68002B01D1012331
:1025B40004E37B681B6803F00103002B00F08780B1
:1025C400924B5B6803F00C03042B0CD08F4B5B68BD
:1025D40003F00C03082B12D18C4B5B6803F480339B
:1025E400B3F5803F0BD1894B1B6803F40033002BF8
:1025F4006CD07B689B68002B68D10123DEE27B688A
:102604009B68B3F5803F06D1804B1B687F4A43F437
:10261400803313602EE07B689B68002B0CD17B4BCE
:102624001B687A4A23F480331360784B1B68774A1B
:1026340023F4802313601DE07B689B68B3F5A02F0F
:102644000CD1724B1B68714A43F4802313606F4BA7
:102654001B686E4A43F4803313600BE06B4B1B68BA
:102664006A4A23F480331360684B1B68674A23F477
:10267400802313607B689B68002B13D0FDF7AAFFAF
:10268400386108E0FDF7A6FF02463B69D31A642BC4
:1026940001D9032392E25D4B1B6803F40033002B42
:1026A400F0D014E0FDF796FF386108E0FDF792FFE3
:1026B40002463B69D31A642B01D903237EE2534BB0
:1026C4001B6803F40033002BF0D100E000BF7B68EB
:1026D4001B6803F00203002B63D04C4B5B6803F0D0
:1026E4000C03002B0BD0494B5B6803F00C03082B45
:1026F4001CD1464B5B6803F48033002B16D1434B4B
:102704001B6803F00203002B05D07B685B69012B77
:1027140001D0012352E23D4B1B6823F0F8027B6891
:102724009B69DB00394913430B603AE07B685B69C2
:10273400002B20D0364B01221A60FDF74BFF386185
:1027440008E0FDF747FF02463B69D31A022B01D983
:10275400032333E22D4B1B6803F00203002BF0D05C
:102764002A4B1B6823F0F8027B689B69DB0027492E
:1027740013430B6015E0264B00221A60FDF72AFF75
:10278400386108E0FDF726FF02463B69D31A022BA5
:1027940001D9032312E21D4B1B6803F00203002B33
:1027A400F0D17B681B6803F00803002B3AD07B68E8
:1027B400DB69002B19D0174B01221A60FDF70AFFC1
:1027C400386108E0FDF706FF02463B69D31A022B85
:1027D40001D90323F2E10D4B5B6A03F00203002BE2
:1027E400F0D0012000F0CAFB1CE00A4B00221A6062
:1027F400FDF7F0FE38610FE0FDF7ECFE02463B69A1
:10280400D31A022B08D90323D8E100BF00100240D9
:1028140000004242800442429B4B5B6A03F0020385
:10282400002BE9D17B681B6803F00403002B00F044
:10283400A6800023FB75944BDB6903F08053002BC7
:102844000DD1914BDB69904A43F08053D3618E4B99
:10285400DB6903F08053BB60BB680123FB758B4BC2
:102864001B6803F48073002B18D1884B1B68874ABC
:1028740043F480731360FDF7ADFE386108E0FDF7A3
:10288400A9FE02463B69D31A642B01D9032395E1BF
:102894007E4B1B6803F48073002BF0D07B681B69AC
:1028A400012B06D1784B1B6A774A43F0010313626C
:1028B4002DE07B681B69002B0CD1734B1B6A724A99
:1028C40023F001031362704B1B6A6F4A23F0040365
:1028D40013621CE07B681B69052B0CD16A4B1B6AD5
:1028E400694A43F004031362674B1B6A664A43F068
:1028F400010313620BE0644B1B6A634A23F0010378
:102904001362614B1B6A604A23F0040313627B6801
:102914001B69002B15D0FDF75DFE38610AE0FDF759
:1029240059FE02463B69D31A41F28832934201D9D7
:10293400032343E1544B1B6A03F00203002BEED044
:1029440014E0FDF747FE38610AE0FDF743FE024656
:102954003B69D31A41F28832934201D903232DE112
:10296400494B1B6A03F00203002BEED1FB7D012BC4
:1029740005D1454BDB69444A23F08053D3617B681E
:10298400DB6A002B00F08C803F4B5B6803F48033E0
:10299400B3F5803F0ED13C4B5B6803F00C03082B6E
:1029A40008D1394BDB6A03F48033B3F5803F01D19E
:1029B400012303E17B68DB6A022B4ED1324B1B6897
:1029C40003F08053002B09D02F4BDB6A03F0F00295
:1029D4007B685B6B9A4201D00123EFE02C4B002211
:1029E4001A60FDF7F7FD386108E0FDF7F3FD0246D4
:1029F4003B69D31A642B01D90323DFE0224B1B6804
:102A040003F00063002BF0D11F4BDB6A23F0F002CC
:102A14007B685B6B1C491343CB621B4BDB6A23F45F
:102A240070627B681B6B18491343CB62184B0122FD
:102A34001A60FDF7CFFD386108E0FDF7CBFD0246D3
:102A44003B69D31A642B01D90323B7E00E4B1B68EF
:102A540003F00063002BF0D022E00B4BDB6A0A4A40
:102A640023F48033D3620A4B00221A60FDF7B2FDCF
:102A740038610FE0FDF7AEFD02463B69D31A642BC3
:102A840008D903239AE000BF001002400070004000
:102A9400680042424B4B1B6803F00063002BE9D1F2
:102AA4007B681B6A002B00F08880464B5B6803F050
:102AB4000C03082B68D07B681B6A022B4DD1424B58
:102AC40000221A60FDF786FD386108E0FDF782FDFB
:102AD40002463B69D31A022B01D903236EE0394B1A
:102AE4001B6803F00073002BF0D17B685B6AB3F5BD
:102AF400803F0FD1334BDA6A7B685B6831491343FB
:102B0400CB62304BDB6A23F00F027B68DB682D4914
:102B14001343CB622B4B5B6823F474127B68596AB2
:102B24007B689B6A0B43274913434B60264B012266
:102B34001A60FDF74FFD386108E0FDF74BFD0246D2
:102B44003B69D31A022B01D9032337E01D4B1B68C1
:102B540003F00073002BF0D02FE01B4B00221A600F
:102B6400FDF738FD386108E0FDF734FD02463B69A6
:102B7400D31A022B01D9032320E0124B1B6803F064
:102B84000073002BF0D118E07B681B6A012B01D184
:102B9400012313E00B4B5B68FB60FB6803F480329A
:102BA4007B685B6A9A4206D1FB6803F470127B6807
:102BB4009B6A9A4201D0012300E00023184618378B
:102BC400BD4680BD001002406000424280B584B022
:102BD40000AF786039607B68002B01D10123D0E01D
:102BE4006A4B1B6803F007033A689A4210D9674B93
:102BF4001B6823F0070265493B6813430B60634B72
:102C04001B6803F007033A689A4201D00123B8E035
:102C14007B681B6803F00203002B20D07B681B68D1
:102C240003F00403002B05D0594B5B68584A43F466
:102C3400E06353607B681B6803F00803002B05D036
:102C4400534B5B68524A43F460535360504B5B6888
:102C540023F0F0027B689B684D4913434B607B680B
:102C64001B6803F00103002B40D07B685B68012BD9
:102C740007D1474B1B6803F40033002B15D1012304
:102C84007FE07B685B68022B07D1414B1B6803F034
:102C94000073002B09D1012373E03D4B1B6803F043
:102CA4000203002B01D101236BE0394B5B6823F055
:102CB40003027B685B68364913434B60FDF78AFC6B
:102CC400F8600AE0FDF786FC0246FB68D31A41F27D
:102CD4008832934201D9032353E02D4B5B6803F000
:102CE4000C027B685B689B009A42EBD1274B1B6804
:102CF40003F007033A689A4210D2244B1B6823F06E
:102D0400070222493B6813430B60204B1B6803F006
:102D140007033A689A4201D0012332E07B681B68BA
:102D240003F00403002B08D0194B5B6823F4E06222
:102D34007B68DB68164913434B607B681B6803F0B0
:102D44000803002B09D0124B5B6823F460527B68A4
:102D54001B69DB000E4913434B6000F021F8014668
:102D64000B4B5B681B0903F00F030A4AD35C21FA7F
:102D740003F3094A1360094B1B681846FDF7E8FB87
:102D8400002318461037BD4680BD00BF0020024016
:102D940000100240F88700086400002000000020B2
:102DA400F0B591B000AF564B07F114040FCB07C434
:102DB4002380544B3C1D0FCB84E80F0000237B631E
:102DC40000233B630023FB630023FB620023BB63FC
:102DD4000023BB6200237B624B4B5B687B637B6B92
:102DE40003F00C03042B02D0082B03D07FE0474BE5
:102DF400BB637FE07B6B9B0C03F00F0307F1400286
:102E0400134413F82C3CFB627B6B03F48033002BDC
:102E140065D03D4BDB6A03F00F0307F14002134416
:102E240013F83C3C3B63384BDB6A03F48033002BE0
:102E340043D0354BDB6A1B0903F00F030133BB623C
:102E4400314BDB6A1B0A03F00F0302337B627B6A9C
:102E540019464FF00002FB6A4FF0000403FB02F531
:102E640001FB04F02844A1FB033402191446274A49
:102E740002FB04F1002202FB03F20A442349A3FBF0
:102E8400015693191E46BB6A19464FF000023B6B6C
:102E94004FF0000403FB02FC01FB04F06044A1FBBF
:102EA4000334021914461A46234628463146FDF7D0
:102EB400B7F903460C46FB6307E0FB6A134A02FBBF
:102EC40003F23B6BB2FBF3F3FB6397F821301A4632
:102ED400FB6A934208D1FB6B5B08FB6304E0FB6A6B
:102EE4000B4A02FB03F3FB63FB6BBB6302E0094B7E
:102EF400BB6300BFBB6B18464437BD46F0BD00BF83
:102F040044840008548400080010024040787D0185
:102F140000093D0000127A0080B400AF024B1B6828
:102F24001846BD4680BC70476400002080B500AFE1
:102F3400FFF7F2FF0146054B5B681B0A03F007032A
:102F4400034AD35C21FA03F3184680BD0010024003
:102F54000888000880B500AFFFF7DEFF0146054B87
:102F64005B68DB0A03F00703034AD35C21FA03F32B
:102F7400184680BD001002400888000880B485B05F
:102F840000AF78600A4B1B680A4AA2FB03235B0A62
:102F94007A6802FB03F3FB6000BFFB685A1EFA6009
:102FA400002BF9D100BF1437BD4680BC704700BF69
:102FB40064000020D34D621080B588B000AF786003
:102FC40000237B6100233B610023FB617B681B685A
:102FD40003F00103002B7DD00023FB768B4BDB69D0
:102FE40003F08053002B0DD1884BDB69874A43F0F3
:102FF4008053D361854BDB6903F08053FB60FB682E
:103004000123FB76824B1B6803F48073002B18D1D9
:103014007F4B1B687E4A43F480731360FDF7DAFA32
:10302400786108E0FDF7D6FA02467B69D31A642B6F
:1030340001D90323E5E0764B1B6803F48073002B6E
:10304400F0D0724B1B6A03F440733B613B69002B65
:103054002ED07B685B6803F440733A699A4227D0A8
:103064006A4B1B6A23F440733B616A4B01221A606A
:10307400684B00221A60654A3B6913623B6903F09E
:103084000103002B14D0FDF7A5FA78610AE0FDF7DF
:10309400A1FA02467B69D31A41F28832934201D9DC
:1030A4000323AEE0594B1B6A03F00203002BEED05E
:1030B400564B1B6A23F440727B685B685349134385
:1030C4000B62FB7E012B05D1504BDB694F4A23F089
:1030D4008053D3617B681B6803F00203002B08D084
:1030E4004A4B5B6823F440427B689B68474913431F
:1030F4004B607B681B6803F00403002B08D0434B30
:10310400DB6A23F400327B68DB6840491343CB62FB
:103114007B681B6803F00803002B08D03B4BDB6A79
:1031240023F480227B681B6938491343CB62374BF5
:10313400DB6A03F40033002B05D1344BDB6A03F460
:103144008023002B01D00123FB61FB69012B48D1B3
:103154002E4B1B6803F08053002B38D12B4B1B687C
:1031640003F08063002B09D0284BDB6A03F0F002E4
:103174007B689B699A4201D0012342E0234BDB6ABE
:1031840023F0F0027B689B6920491343CB621F4BF9
:10319400DB6A23F470427B685B691C491343CB628E
:1031A4001D4B01221A60FDF715FA786108E0FDF75E
:1031B40011FA02467B69D31A642B01D9032320E058
:1031C400124B1B6803F00053002BF0D009E00F4BA7
:1031D400DB6A03F470427B685B699A4201D0012385
:1031E4000FE07B681B6803F01003002B08D0074B2B
:1031F4005B6823F480027B68DB69044913434B60FA
:10320400002318462037BD4680BD00BF0010024091
:1032140000700040400442427000424280B582B0D7
:1032240000AF78607B68002B01D101233FE07B680D
:1032340093F83930DBB2002B06D17B68002283F887
:103244003820786803F066FC7B68242283F83920F0
:103254007B681B68DA687B681B6822F40052DA60BA
:10326400786800F0EFFA7B681B681A697B681B6852
:1032740022F490421A617B681B685A697B681B6858
:1032840022F02A025A617B681B68DA687B681B6833
:1032940042F40052DA607B680022DA637B68202201
:1032A40083F839207B68202283F83A2000231846CB
:1032B4000837BD4680BD80B485B000AFF860B96002
:1032C4001346FB80FB6893F83930DBB2202B30D1F6
:1032D400BB68002B02D0FB88002B01D1012329E01D
:1032E400FB6893F83830012B01D1022322E0FB68FC
:1032F400012283F83820FB68BA681A62FB68FA88EE
:103304009A84FB68FA88DA84FB680022DA63FB6833
:10331400212283F83920FB68002283F83820FB68D7
:103324001B68DA68FB681B6842F08002DA600023DD
:1033340000E0022318461437BD4680BC704780B4B1
:1033440085B000AFF860B9601346FB80FB6893F862
:103354003A30DBB2202B40D1BB68002B02D0FB8873
:10336400002B01D1012339E0FB6893F83830012B9D
:1033740001D1022332E0FB68012283F83820FB6884
:10338400BA689A62FB68FA889A85FB68FA88DA85D3
:10339400FB680022DA63FB68222283F83A20FB6888
:1033A400002283F83820FB681B68DA68FB681B6816
:1033B40042F48072DA60FB681B685A69FB681B6818
:1033C40042F001025A61FB681B68DA68FB681B68FB
:1033D40042F02002DA60002300E00223184614378A
:1033E400BD4680BC7047000080B588B000AF7860EF
:1033F4007B681B681B68FB617B681B68DB68BB61BF
:103404007B681B685B697B6100233B610023FB6075
:10341400FB6903F00F033B613B69002B0DD1FB6992
:1034240003F02003002B08D0BB6903F02003002B1A
:1034340003D0786800F084F9CCE03B69002B00F0FD
:10344400AB807B6903F00103002B05D1BB6903F456
:103454009073002B00F0A080FB6903F00103002BA4
:103464000AD0BB6903F48073002B05D07B68DB6B47
:1034740043F001027B68DA63FB6903F00403002B69
:103484000AD07B6903F00103002B05D07B68DB6B5A
:1034940043F002027B68DA63FB6903F00203002B4A
:1034A4000AD07B6903F00103002B05D07B68DB6B3A
:1034B40043F004027B68DA63FB6903F00803002B22
:1034C4000AD07B6903F00103002B05D07B68DB6B1A
:1034D40043F008027B68DA637B68DB6B002B78D0EF
:1034E400FB6903F02003002B07D0BB6903F0200322
:1034F400002B02D0786800F023F97B681B685B69B5
:1035040003F04003002B14BF01230023DBB2FB6054
:103514007B68DB6B03F00803002B02D1FB68002BF4
:1035240031D0786800F06EF87B681B685B6903F043
:103534004003002B23D07B681B685A697B681B6897
:1035440022F040025A617B685B6B002B13D07B68CE
:103554005B6B224A5A637B685B6B1846FDF774F910
:103564000346002B16D07B685B6B5B6B7A68526BEF
:10357400104698470EE0786800F03BF80AE0786857
:1035840000F037F806E0786800F033F87B68002232
:10359400DA631EE000BF1CE0FB6903F08003002B2C
:1035A40008D0BB6903F08003002B03D0786800F0D7
:1035B4005AF80FE0FB6903F04003002B0AD0BB6903
:1035C40003F04003002B05D0786800F0A1F800BF99
:1035D40000E000BF2037BD4680BD00BF4336000871
:1035E40080B483B000AF786000BF0C37BD4680BCA8
:1035F400704780B483B000AF786000BF0C37BD461D
:1036040080BC704780B483B000AF78607B681B686F
:10361400DA687B681B6822F49072DA607B681B6846
:103624005A697B681B6822F001025A617B68202278
:1036340083F83A2000BF0C37BD4680BC704780B584
:1036440084B000AF78607B685B6AFB60FB68002233
:10365400DA85FB680022DA84F868FFF7CAFF00BF46
:103664001037BD4680BD80B485B000AF78607B68FC
:1036740093F83930DBB2212B44D17B689B68B3F5D6
:10368400805F1AD17B681B6AFB60FB681B881A4643
:103694007B681B68C2F308025A607B681B69002BB5
:1036A40005D17B681B6A9A1C7B681A620EE07B68F2
:1036B4001B6A5A1C7B681A6208E07B681B6A591CE7
:1036C4007A6811621A787B681B685A607B68DB8CA5
:1036D4009BB2013B9BB27A681946D184002B0FD16F
:1036E4007B681B68DA687B681B6822F08002DA60FA
:1036F4007B681B68DA687B681B6842F04002DA600A
:10370400002300E0022318461437BD4680BC7047EE
:1037140080B582B000AF78607B681B68DA687B682C
:103724001B6822F04002DA607B68202283F839208B
:103734007868FFF755FF002318460837BD4680BD5B
:1037440080B584B000AF78607B6893F83A30DBB220
:10375400222B71D17B689B68B3F5805F23D17B6892
:103764009B6AFB607B681B69002B0ED17B681B681E
:103774005B689BB2C3F308039AB2FB681A807B6848
:103784009B6A9A1C7B689A6229E07B681B685B6869
:103794009BB2DBB29AB2FB681A807B689B6A5A1CA4
:1037A4007B689A621BE07B681B69002B0AD17B68EB
:1037B4001B6858687B689B6A591C7A689162C2B21C
:1037C4001A700CE07B681B685B68DAB27B689B6AE2
:1037D400581C7968886202F07F02D2B21A707B6842
:1037E400DB8D9BB2013B9BB27A681946D185002BD5
:1037F40020D17B681B68DA687B681B6822F0200292
:10380400DA607B681B68DA687B681B6822F4807264
:10381400DA607B681B685A697B681B6822F00102C6
:103824005A617B68202283F83A20786803F078F89C
:10383400002302E0002300E0022318461037BD46AF
:1038440080BD000080B584B000AF78607B681B68E1
:103854001B6923F440517B68DA687B681B680A4360
:103864001A617B689A687B681B691A437B685B6989
:103874001343FB607B681B68DB6823F4B05323F0BD
:103884000C037A681268F9680B43D3607B681B6881
:103894005B6923F440717B689A697B681B680A43FF
:1038A4005A617B681B68524A93424ED1FFF752FB20
:1038B400B860BA6813469B0013449A001A447B68A4
:1038C4005B689B00B2FBF3F34A4AA2FB03235B0948
:1038D4001901BA6813469B0013449A001A447B6882
:1038E4005B689B00B2FBF3F2424BA3FB02035B0950
:1038F400642000FB03F3D31A1B0132333D4AA2FBBD
:1039040003235B0903F0F0031944BA6813469B00D0
:1039140013449A001A447B685B689B00B2FBF3F281
:10392400344BA3FB02035B09642000FB03F3D31AAB
:103934001B0132332F4AA2FB03235B0903F00F025E
:103944007B681B680A449A604DE0FFF7EFFAB860A1
:10395400BA6813469B0013449A001A447B685B6858
:103964009B00B2FBF3F3234AA2FB03235B09190177
:10397400BA6813469B0013449A001A447B685B6838
:103984009B00B2FBF3F21B4BA3FB02035B09642015
:1039940000FB03F3D31A1B013233164AA2FB0323A1
:1039A4005B0903F0F0031944BA6813469B001344FF
:1039B4009A001A447B685B689B00B2FBF3F20D4BE0
:1039C400A3FB02035B09642000FB03F3D31A1B016E
:1039D4003233084AA2FB03235B0903F00F027B681E
:1039E4001B680A449A6000BF1037BD4680BD00BF03
:1039F400003801401F85EB5184B080B584B000AF1E
:103A0400786007F11C0080E80E003B6B012B22D18B
:103A14007B689B6B23F480327B689A637B68DB68EA
:103A240023F4840323F040037A68D3607B68DB6863
:103A340023F440127B68DA60FB6C012B05D17B68B0
:103A4400DB6843F480127B68DA60786800F022F95E
:103A54000346FB7310E07B68DB6843F040027B683D
:103A6400DA60786800F016F90346FB737B689B6B99
:103A740043F480327B689A63FB7B18461037BD465B
:103A8400BDE8804004B0704780B483B000AF786074
:103A94007B689B6843F001027B689A6000231846A8
:103AA4000C37BD4680BC704780B483B000AF7860EB
:103AB4007B689B6823F001027B689A6000231846A8
:103AC4000C37BD4680BC704780B582B000AF7860CB
:103AD4000B46FB707B68DB6823F0C0427B68DA60CE
:103AE400FB78012B06D17B68DB6843F000527B68CE
:103AF400DA600BE0FB78002B06D17B68DB6843F0CF
:103B040080427B68DA6001E0012303E03220FCF7A5
:103B14006BFD002318460837BD4680BD80B485B0D0
:103B240000AF786039600023FB603B689B0143F081
:103B340020027B681A61FB680133FB60FB68084A5A
:103B4400934201D9032306E07B681B6903F0200339
:103B5400202BF0D0002318461437BD4680BC704794
:103B6400400D030080B485B000AF78600023FB6093
:103B74007B6810221A61FB680133FB60FB68084A0A
:103B8400934201D9032306E07B681B6903F0100309
:103B9400102BF0D0002318461437BD4680BC704764
:103BA400400D030080B489B000AFF860B9601146DD
:103BB4001A460B46FB711346BB80FB687B61BB68EE
:103BC400FB61BB8803339B083B610023BB610FE0AF
:103BD400FB791A037B69134403F580531A46FB6986
:103BE4001B681360FB690433FB61BB690133BB6170
:103BF400BA693B699A42EBD3002318462437BD4681
:103C040080BC704780B489B000AFF860B9601346D7
:103C1400FB80FB687B61BB68FB61FB8803339B080B
:103C24003B610023BB610BE07B6903F580531A6899
:103C3400FB691A60FB690433FB61BB690133BB6137
:103C4400BA693B699A42EFD3FB6918462437BD46EB
:103C540080BC704780B485B000AF78607B685B69D6
:103C6400FB607B689B69FA681340FB60FB6818463D
:103C74001437BD4680BC704780B483B000AF786011
:103C84007B685B6903F0010318460C37BD4680BCB2
:103C94007047000080B485B000AF78600023FB60FB
:103CA400FB680133FB60FB68124A934201D903238A
:103CB4001BE07B681B69002BF2DA0023FB607B6846
:103CC4001B6943F001027B681A61FB680133FB60E6
:103CD400FB68084A934201D9032306E07B681B6909
:103CE40003F00103012BF0D0002318461437BD461E
:103CF40080BC7047400D030084B080B584B000AF31
:103D0400786007F11C0080E80E007B68BB60BB682C
:103D140003F560631A46002313607B689B6B23F4EE
:103D240080227B689A637B689B6B23F400227B6808
:103D34009A63BB6803F580631B68BA6802F5806206
:103D440023F00403136010217868FFF7E7FE786816
:103D5400FFF708FF0023FB6015E0FB685A01BB680E
:103D6400134403F5A0631A464FF0FF339360FB68D6
:103D74005A01BB68134403F5A0631A460023D360B9
:103D8400FB680133FB603B6AFA689A42E5D3012180
:103D9400786800F092F8C820FCF726FC7B680022C3
:103DA4009A617B684FF0FF325A617B6880225A62C5
:103DB4007B680D4A9A627B680C4AC3F800217B68D1
:103DC4009B6943F010027B689A617B689A69084B8F
:103DD40013437A689361002318461037BD46BDE843
:103DE400804004B0704700BF80006000E0004000E5
:103DF400080020A380B485B000AF78600B46FB7048
:103E04007B68FB60FB6803F580631B68FA6802F556
:103E1400806223F003031360FB6803F580631A6870
:103E2400FB7803F00303F96801F5806113430B6029
:103E3400FB78012B07D1FB6803F580631A464BF628
:103E44008033536009E0FB78022B06D1FB6803F54D
:103E540080631A4641F27073536000231846143786
:103E6400BD4680BC704780B584B000AF78607B6885
:103E7400FB600023BB60FB6803F588631B68BB60C1
:103E8400BB6823F02E03BB60BB68FA6802F5886246
:103E940043F4807313606420FCF7A6FBBB68FA68E4
:103EA40002F5886223F4807313600A20FCF79CFBFC
:103EB400002318461037BD4680BD80B485B000AFDE
:103EC40078600B46FB707B68FB600023BB60FB687B
:103ED40003F588631B68BB60BB6823F02E03BB60DB
:103EE400BB6803F48053002B09D1FB78012B06D166
:103EF400BB68FA6802F5886243F480531360BB68B8
:103F040003F48053B3F5805F09D1FB78002B06D10D
:103F1400BB68FA6802F5886223F4805313600023B7
:103F240018461437BD4680BC704780B485B000AFD6
:103F340078607B68FB600023BB60FB6803F58863E3
:103F44001B68BB60BB685B0C03F0030318461437A3
:103F5400BD4680BC704780B485B000AF78607B6894
:103F6400FB60FB6803F580639B689BB218461437BB
:103F7400BD4680BC7047000080B487B000AF786055
:103F8400084611461A460346FB700B46BB7013469F
:103F94007B700023FB757B68BB60FB785A01BB68B0
:103FA400134403F5A0631A464FF0FF33936097F868
:103FB4002430032B67D801A252F823F0D13F000824
:103FC4004D400008D13F00080F400008FB785A011B
:103FD400BB68134403F5A0631A4640F29D43D360C3
:103FE40097F90230002B51DAFB785A01BB6813446D
:103FF40003F5A063DB68FA785101BA680A4402F554
:10400400A06243F48073D36040E0FB785A01BB683C
:10401400134403F5A0631A4640F29D63D36097F9F5
:104024000230002B34DAFB785A01BB68134403F5E1
:10403400A063DB68FA785101BA680A4402F5A06209
:1040440043F48073D36023E0FB785A01BB681344C4
:1040540003F5A0631A4640F22523D36097F9023092
:10406400002B17DAFB785A01BB68134403F5A063ED
:10407400DB68FA785101BA680A4402F5A06243F495
:10408400C073D36006E00123FB7504E000BF02E0C7
:1040940000BF00E000BFBB6803F580639A69FB784A
:1040A40003F00F03012101FA03F3B96801F58061FC
:1040B40013438B617B689B6943F000727B689A6150
:1040C40097F90230002B03DA4FF400433B6101E01F
:1040D40000233B6197F82030022B03D14FF40033C7
:1040E400FB6001E00023FB607B789B0503F0FE523C
:1040F400BB78DB0203F4F0431A4397F824309B04A3
:1041040003F440231A433B8DC3F30A031A433B6968
:104114001A43FB785901BB680B4403F5A0631946A5
:10412400FB6813430B6097F82430032B0FD1FB7803
:104134005A01BB68134403F5A0631B68FA78510164
:10414400BA680A4402F5A06243F000531360FB7D91
:1041540018461C37BD4680BC704700BF80B588B088
:1041640000AF786039607B68BB613B685B787B61DA
:104174004FF480737B823B681B69002B18D03B682B
:104184001B693A6812891344013B3A681289B3FBEC
:10419400F2F3FB83FA8B7B8A9A420BD97B8AFB83EB
:1041A400FB8B3A68128902FB03F23B681A6101E057
:1041B4000123FB833B68DB78002B06D0FB8B3A683A
:1041C400128902FB03F23B681A613B681B69C3F363
:1041D4001202FB8BD9045F4B0B401A433B689B7A5A
:1041E4005B0703F0C04379694801B969014401F5EB
:1041F400A06113430B61BB6903F580639B6803F003
:104204000103002B0CBF01230023DBB27B747B6909
:104214005A01BB69134403F5A0631B687A69510111
:10422400BA690A4402F5A06223F0005313607B6963
:104234005A01BB69134403F5A0631A687B7C5B07CE
:1042440079694801B969014401F5A06113430B6020
:104254007B695A01BB69134403F5A0631B683E4A9A
:1042640013603D4B1B6823F080433B4A13603B685B
:10427400DB78002B06D0384B1B6843F40043364AE6
:10428400136005E0344B1B6823F40043324A136087
:10429400314B1B6843F000432F4A13607B695A017A
:1042A400BB69134403F5A0631A462B4B1B681360C8
:1042B4003B68DB78002B48D13B681B69002B44D05A
:1042C4003B68DB79032B31D801A252F823F000BFFD
:1042D400E542000809430008E542000809430008D4
:1042E4003B681B6903339B08FB81FA897B68DB6AA3
:1042F4009BB29A421CD97B689B6943F020027B687D
:104304009A6115E03B681B6903339B08FB81FA89BA
:10431400BB6903F580631B699BB29A420AD97B6827
:104324009B6943F080627B689A6103E000BF02E00E
:1043340000BF00E000BF3B68D9683B685A783B681F
:104344001B699BB27868FFF72DFC002318462037C1
:10435400BD4680BD0000F81FEC00002080B485B08D
:1043640000AF78607B68FB60FB6803F580635B6982
:104374009BB218461437BD4680BC704780B487B0E2
:1043840000AF78600B46FB707B683B61FB78FB6099
:1043940000237B61FB685A013B69134403F5A06366
:1043A4001B689B0C03F00303BB60BB68002B02D0AB
:1043B400BB68022B6CD1FB685A013B69134403F5BB
:1043C400A0631B68FA6851013A690A4402F5A062C5
:1043D40043F0804313607B68DB6A03F47F03002BA4
:1043E40043D1FB685A013B69134403F5A0631B687E
:1043F400FA6851013A690A4402F5A06223F00043C5
:104404001360FB685A013B69134403F5A0631B68FE
:10441400FA6851013A690A4402F5A06243F0004384
:104424001360FB685A013B69134403F5A0631B68DE
:10443400FA6851013A690A4402F5A06223F4004380
:1044440013607B6901337B617B69B3F57A7F1DD887
:10445400FB685A013B69134403F5A0631B6803F02E
:104464000043B3F1004FECD080E0FB685A013B6994
:10447400134403F5A0631B68FA6851013A690A44BE
:1044840002F5A06243F0004313606FE000BF6DE0EB
:10449400FB685A013B69134403F5A0631B68FA687F
:1044A40051013A690A4402F5A06243F08043136063
:1044B4003B6903F580631B6903F47F03002B43D13D
:1044C400FB685A013B69134403F5A0631B68FA684F
:1044D40051013A690A4402F5A06223F000431360D3
:1044E400FB685A013B69134403F5A0631B68FA682F
:1044F40051013A690A4402F5A06243F00043136093
:10450400FB685A013B69134403F5A0631B68FA680E
:1045140051013A690A4402F5A06223F4004313608E
:104524007B6901337B617B69B3F57A7F1DD8FB68B6
:104534005A013B69134403F5A0631B6803F000436D
:10454400B3F1004FECD011E0FB685A013B6913440E
:1045540003F5A0631B68FA6851013A690A4402F53D
:10456400A06243F00043136000E000BF002318463C
:104574001C37BD4680BC704780B586B000AF7860FC
:104584007B68FB6000237B617868FFF78DFA10215C
:104594007868FFF7C3FA7868FFF7E4FA00233B6111
:1045A4001FE03B695A01FB68134403F5A0631B68D1
:1045B400BB60BB6843F08043BB60BB6823F000432F
:1045C400BB60BB6823F40043BB603B695A01FB68D2
:1045D400134403F5A0631A46BB6813603B690133B7
:1045E4003B613B690F2BDCD900233B6134E03B6921
:1045F4005A01FB68134403F5A0631B68BB60BB68E6
:1046040043F08043BB60BB6843F00043BB60BB68BE
:1046140023F40043BB603B695A01FB68134403F570
:10462400A0631A46BB6813607B6901337B617B69B5
:10463400B3F57A7F0CD83B695A01FB68134403F540
:10464400A0631B6803F00043B3F1004FECD000E01B
:1046540000BF3B6901333B613B690F2BC7D9FB6842
:1046640003F580631A464FF0FF3353617B684FF0C4
:10467400FF325A617868FFF707FA002318461837A3
:10468400BD4680BD90B589B004AF78600023022296
:104694000221786800F092FD0346FB73FB7BFF2B3D
:1046A40002D0FB7B012B0FD9814802F0B9FF7B6854
:1046B400D3F878331B6819467E4802F0B1FF0A200C
:1046C40002F0C6FF022369E1FB7B1946786800F01B
:1046D4000DFD0346BB73BB7B002B01D002235DE1C0
:1046E4007B68D3F87843502002F0DCFE0346E36194
:1046F4007B68D3F87833DB69BB60BB68002B0AD1D5
:104704006B4802F08DFF6C4802F08AFF0A2002F029
:104714009FFF022342E150220021B86802F0D2FE3A
:10472400FB7B7A681A2101FB03F3134403F55373EB
:104734001B785BB2002B15DAFB7B7A681A2101FB2C
:1047440003F3134403F553731A78BB685A70FB7B65
:104754007A681A2101FB03F3134403F24E331A88D7
:10476400BB685A81BB685B781946786801F01BFF07
:1047740003461A46BB681A70BB681978BB68587838
:104784007B6893F81C437B6893F81D33BA6852899D
:10479400029203220192009323460246786801F0B4
:1047A400D3FEBB681B7800221946786802F0CBFD63
:1047B400002300220A21786800F000FD0346FB7301
:1047C400FB7BFF2B02D0FB7B012B0FD9384802F077
:1047D40027FF7B68D3F878331B681946374802F003
:1047E4001FFF0A2002F034FF0223D7E0FB7B7A6824
:1047F4001A2101FB03F3134403F553731B785BB2D3
:10480400002B16DAFB7B7A681A2101FB03F31344AD
:1048140003F553731A78BB68DA73FB7B7A681A2141
:1048240001FB03F3134403F24E331A88BB685A8323
:1048340015E0FB7B7A681A2101FB03F3134403F5AB
:1048440053731A78BB689A73FB7B7A681A2101FB4D
:1048540003F3134403F24E331A88BB681A83FB7BB9
:104864007A681A2101FB03F3134403F555731B788B
:104874005BB2002B26DA012280211148FCF746FAAC
:10488400FB7B7A681A2101FB03F3134403F5557388
:104894001A78BB68DA73FB7B7A681A2101FB03F38D
:1048A400134403F256331A88BB685A8325E000BFC9
:1048B4006884000874840008B4840008DC84000858
:1048C40000100140012240213648FCF71FFAFB7B0F
:1048D4007A681A2101FB03F3134403F555731A781C
:1048E400BB689A73FB7B7A681A2101FB03F31344B8
:1048F40003F256331A88BB681A83BB689B7B19463C
:10490400786801F050FE03461A46BB685A73BB68C8
:10491400DB7B1946786801F046FE03461A46BB68FD
:104924001A73BB68597BBB68987B7B6893F81C43FC
:104934007B6893F81D33BA68128B029202220192AB
:10494400009323460246786801F0FEFDBB68197B9C
:10495400BB68D87B7B6893F81C437B6893F81D3352
:10496400BA68528B029202220192009323460246B5
:10497400786801F0E9FDBB68002283F84C20BB682D
:104984005B7B00221946786802F0DDFCBB681B7B68
:1049940000221946786802F0D6FC00231846143722
:1049A400BD4690BD0010014080B584B000AF786072
:1049B4007B68D3F87833DB69FB60FB681B78002BDA
:1049C4000ED0FB681B781946786801F0DCFDFB68A3
:1049D4001B781946786801F006FEFB6800221A70FD
:1049E400FB681B7B002B0ED0FB681B7B1946786889
:1049F40001F0C9FDFB681B7B1946786801F0F3FDE3
:104A0400FB6800221A73FB685B7B002B0ED0FB68EB
:104A14005B7B1946786801F0B6FDFB685B7B194641
:104A2400786801F0E0FDFB6800225A737B68D3F8D4
:104A34007833DB69002B0BD07B68D3F87833DB69E0
:104A4400184602F037FD7B68D3F878330022DA6128
:104A5400002318461037BD4680BD80B584B000AF32
:104A640078600223FB737B68D3F87833DB69BB601F
:104A7400BB6840331946786800F0B0F80346FB730E
:104A8400FB7B002B05D17B68D3F8CC3302217868FB
:104A94009847FB7B18461037BD4680BD80B584B06F
:104AA40000AF78600123FB730023BB737B68D3F8EA
:104AB4007833DB69BB60BB6893F84C30042B77D840
:104AC40001A252F823F000BFE14A0008E74A0008B7
:104AD400174B00088B4B0008994B00080023FB730D
:104AE4006DE0BB689B6C1946786800F096F8034645
:104AF400BB73BB7B002B04D1BB68022283F84C2020
:104B040058E0BB7B012B55D0BB68042283F84C20B2
:104B140050E0BB6840331946786800F05FF80346FC
:104B2400BB73BB7B002B26D1BB68002283F84C20CF
:104B3400BB6893F84420BB689B6C1B799A423BD1B9
:104B4400BB6893F84620BB689B6C9B799A4233D12F
:104B5400BB6893F84520BB689B6C5B799A422BD168
:104B6400BB681A6CBB689B6C1B689A4224D178683A
:104B740000F0DEF920E0BB7B012B1DD0BB680422D2
:104B840083F84C2018E0786800F0FFF8786800F0AB
:104B940074F914E00021786801F099F80346BB73B6
:104BA400BB7B002B0AD1BB68002283F84C2005E0B4
:104BB40000BF04E000BF02E000BF00E000BFFB7BD9
:104BC40018461037BD4680BD80B483B000AF78600E
:104BD400002318460C37BD4680BC704780B582B0B0
:104BE40000AF786039607B68A1221A747B68212247
:104BF4005A747B6800225A827B6800229A827B68FE
:104C04000722DA823B6807221946786801F03AFAEB
:104C1400034618460837BD4680BD80B582B000AF54
:104C2400786039607B6821221A747B6820225A7468
:104C34007B6800225A827B6800229A827B68072262
:104C4400DA823B6807221946786801F01BFA0346AA
:104C540018460837BD4680BD80B485B000AF786083
:104C640039607B68D3F87833DB69FB607B681B7839
:104C7400DBB20B2B06D1FB68012283F84C20FB68C6
:104C84003A689A64002318461437BD4680BC7047BE
:104C940080B485B000AF786039607B68D3F878332E
:104CA400DB69FB607B681B78DBB20B2B04D07B6871
:104CB4001B78DBB2062B08D13A68FB68403393E8D3
:104CC400030082E80300002300E00223184614379F
:104CD400BD4680BC704780B487B000AFF860B9604F
:104CE4007A600123FB75FB68D3F87833DB693B6199
:104CF4003B6993F84C30002B04D03B6993F84C305B
:104D0400032B0FD13B69BA68DA613B697A685A624E
:104D14003B69032283F84C203B69012283F84D2030
:104D24000023FB75FB7D18461C37BD4680BC7047CD
:104D340080B487B000AFF860B9607A600123FB7576
:104D4400FB68D3F87833DB693B613B6993F84C30FB
:104D5400002B04D03B6993F84C30032B0FD13B69F3
:104D6400BA681A623B697A689A623B69032283F8DB
:104D74004C203B69032283F84E200023FB75FB7D06
:104D840018461C37BD4680BC704780B586B002AF5C
:104D940078607B68D3F87833DB69FB600023FB72AF
:104DA400FB6893F84D30012B02D0022B25D060E034
:104DB400FB685B6AFA68128B93420CD9FB68D96969
:104DC400FB681A8BFB68587B0123009303467868C1
:104DD40001F077FB0CE0FB68D969FB685B6A9AB267
:104DE400FB68587B012300930346786801F069FB54
:104DF400FB68022283F84D203BE0FB685B7B19468D
:104E0400786802F073FA0346FB72FB7A012B28D10F
:104E1400FB685B6AFA68128B93420ED9FB685B6A83
:104E2400FA68128B9A1AFB685A62FB68DB69FA68A3
:104E3400128B1A44FB68DA6102E0FB6800225A62B2
:104E4400FB685B6A002B04D0FB68012283F84D20C9
:104E54000EE0FB68002283F84D20786801F0DEFD47
:104E640006E0FB7A022B03D1FB68012283F84D2074
:104E740000BF00BF1037BD4680BD80B586B000AF0F
:104E840078607B68D3F87833DB697B610023FB743B
:104E94007B6993F84E30032B02D0042B0ED043E0F1
:104EA4007B69196A7B695A8B7B691B7B786801F083
:104EB4002DFB7B69042283F84E2035E07B691B7B44
:104EC4001946786802F012FA0346FB74FB7C012B46
:104ED40029D17B691B7B1946786802F075F9F86063
:104EE4007B699B6AFA689A4216D07B695B8B1A4687
:104EF400FB68934210D97B699A6AFB68D21A7B6972
:104F04009A627B691A6AFB681A447B691A627B6934
:104F1400032283F84E2006E07B69002283F84E20AA
:104F2400786801F093FD00BF00BF1837BD4680BD0F
:104F340080B483B000AF786000BF0C37BD4680BC3E
:104F44007047000080B584B000AFF860B9601346C4
:104F5400FB71FB68002B0AD11C4802F061FB1C4862
:104F640002F05EFB0A2002F073FB022329E0FB68D7
:104F7400FA7983F8C423FB680022C3F87823FB681A
:104F84000022C3F87C23F86800F024F8FB680022B0
:104F940083F82123FB68002283F81E23FB68002288
:104FA40083F81F23FB68002283F82023BB68002BAF
:104FB40003D0FB68BA68C3F8CC23F86802F058F849
:104FC400002318461037BD4680BD00BF1085000879
:104FD4001885000880B485B000AF78600023FB60BA
:104FE4000023FB6008E07B68FA68E032002143F8A4
:104FF4002210FB680133FB60FB680E2BF3D90023FE
:10500400FB6009E07A68FB68134403F58E730022A1
:105014001A70FB680133FB60FB68B3F5007FF1D3C2
:105024007B6800221A707B6800225A707B68012218
:105034009A707B680022C3F8C0237B6801221A7629
:105044007B6840229A717B6800225A767B68002232
:1050540083F81C237B68012283F81D230023184650
:105064001437BD4680BC704780B584B000AF78600B
:1050740039600023FB733B68002B20D07B68D3F896
:105084007C33002B0FD17B68D3F87C33591C7A68AE
:10509400C2F87C137A68DC339B0013443A685A6084
:1050A4000023FB7316E00E4802F0BAFA0D4802F032
:1050B400B7FA0A2002F0CCFA0223FB730AE008488C
:1050C40002F0AEFA084802F0ABFA0A2002F0C0FA85
:1050D4000223FB73FB7B18461037BD4680BD00BF1F
:1050E400108500082C8500084885000880B584B028
:1050F40000AF78600B46FB700023FB737B6893F86A
:105104003A33FA789A423CD27B68FA7883F82223BD
:10511400FB781946234802F083FA0A2002F098FA31
:10512400FB787A681A2101FB03F3134403F2453335
:105134001B7819461C4802F073FA0A2002F088FA18
:10514400FB787A681A2101FB03F3134403F2463314
:105154001B781946154802F063FA0A2002F078FA1F
:10516400FB787A681A2101FB03F3134403F24733F3
:105174001B7819460E4802F053FA0A2002F068FA26
:105184000AE00C4802F04CFA0B4802F049FA0A20F3
:1051940002F05EFA0223FB73FB7B18461037BD4610
:1051A40080BD00BF608500088085000890850008E8
:1051B400A085000810850008B085000880B487B079
:1051C40000AF7860084611461A460346FB700B464A
:1051D400BB7013467B700023FB7500233B617B6827
:1051E40003F23633FB6025E0FB7D1A2202FB03F356
:1051F4000833FA68134402333B613B695B79FA78FC
:105204009A4202D0FB78FF2B11D13B699B79BA7883
:105214009A4202D0BB78FF2B09D13B69DB797A78BB
:105224009A4202D07B78FF2B01D1FB7D06E0FB7D07
:105234000133FB75FB7D012BD6D9FF2318461C37A0
:10524400BD4680BC704780B582B000AF7860786896
:1052540001F044FF0121786802F05BF8002318464E
:105264000837BD4680BD000080B588B004AF7860C3
:105274000223BB730023FB737B6893F81F33DBB2F9
:10528400012B02D17B6803221A707B681B78DBB286
:105294000B2B00F2E48101A252F823F0D152000852
:1052A400FF5200081F530008F15500086356000818
:1052B400C3530008655500080B5400082B5400081C
:1052C4005754000891540008A95500087B6893F8C6
:1052D4001E33DBB2002B00F0C481B84802F0A0F901
:1052E4000A2002F0B5F97B6801221A70C82002F086
:1052F4005CF8786801F04DFFB3E17B6893F82133E3
:10530400012B40F0B081AE4802F08AF90A2002F085
:105314009FF97B6802221A70A5E17B68D3F8CC332D
:10532400002B05D07B68D3F8CC33042178689847E8
:10533400642002F03AF8786801F006FF03461A4642
:105344007B6883F81D237B6805221A700021786826
:1053540001F029F903461A467B685A71802178685E
:1053640001F021F903461A467B681A717B681979A2
:105374007B6893F81C037B6893F81D337A689279F1
:1053840092B202920022019200930346802278682E
:1053940001F0DAF87B6859797B6893F81C037B6821
:1053A40093F81D337A68927992B2029200220192A4
:1053B400009303460022786801F0C6F860E178683B
:1053C40000F066F90346002B40F04F817D4802F05F
:1053D40027F90A2002F03CF97B68002283F8222393
:1053E4007B6893F83533012B09D1774802F018F91B
:1053F4000A2002F02DF97B6808221A7035E17B68D7
:1054040007221A7031E17B68D3F8CC33002B00F00B
:105414002E817B68D3F8CC330121786898477B6868
:1054240008221A7023E17B6893F83B339BB2194638
:10543400786800F005FC0346002B40F01A817B6875
:1054440009221A70614802F0EBF80A2002F000F910
:105454000FE17B6893F83D3303F02003002B11D058
:105464000121786800F00FFC0346002B40F0038113
:10547400574802F0D5F80A2002F0EAF87B680A22BD
:105484001A70F8E07B680A221A70F4E07B68D3F89B
:105494007C33002B06D14F4802F0C2F80A2002F0F8
:1054A400D7F8EDE07B680022C3F878230023FB7370
:1054B40017E0FB7B7A68DC339B0013445B681A7942
:1054C4007B6893F845339A4208D1FB7B7A68DC33D6
:1054D4009B0013445A687B68C3F87823FB7B013331
:1054E400FB73FB7B002BE4D07B68D3F87833002B71
:1054F4002CD07B68D3F878339B6878689847034648
:10550400002B14D17B6806221A707B68D3F8783399
:105514001B681946304802F083F80A2002F098F814
:105524007B68D3F8CC33032178689847A8E07B687C
:105534000D221A707B68D3F878331B681946274804
:1055440002F06EF80A2002F083F899E07B680D22DD
:105554001A70234802F064F80A2002F079F88FE008
:105564007B68D3F87833002B0FD07B68D3F878337B
:105574001B69786898470346BB73BB7BDBB2002B7F
:105584007BD17B680B221A7077E07B680D221A703E
:10559400144802F045F8144802F042F80A2002F0D8
:1055A40057F86AE07B68D3F87833002B67D07B68C0
:1055B400D3F878335B697868984760E0D085000851
:1055C400E88500080486000818860008408600085C
:1055D4005C8600087C8600089C860008B08600086B
:1055E400D086000810850008F88600087B68002231
:1055F40083F81F237868FFF7EDFC7B68D3F87833D2
:10560400002B09D07B68D3F87833DB687868984737
:105614007B680022C3F878237B68D3F8CC33002B53
:1056240005D07B68D3F8CC330521786898471748B0
:1056340001F0F6FF0A2002F00BF87B6893F82033A0
:10564400DBB2012B07D17B68002283F82023786822
:10565400FFF7F9FD14E0786801F040FD10E000BFA9
:105664000EE000BF0CE000BF0AE000BF08E000BF8E
:1056740006E000BF04E000BF02E000BF00E000BF9E
:10568400002318461037BD4680BD00BF10870008B0
:1056940080B588B004AF78600123FB737B685B78C6
:1056A400072B00F2488101A252F823F0D1560008DA
:1056B40043570008835700080D5800082558000870
:1056C4004358000897580008EB58000808217868E8
:1056D40000F0E6F90346002B40F02F817B6893F835
:1056E4002B237B689A717B6801225A707B68197935
:1056F4007B6893F81C037B6893F81D337A6892796E
:1057040092B20292002201920093034680227868AA
:1057140000F01AFF7B6859797B6893F81C037B6857
:1057240093F81D337A68927992B202920022019220
:10573400009303460022786800F006FFFDE0122182
:10574400786800F0ADF90346002B40F0F8807B68E0
:10575400B3F82E331946834801F062FF0A2001F0A2
:1057640077FF7B68B3F82C3319467F4801F058FF64
:105774000A2001F06DFF7B6802225A70DFE00121EC
:10578400786800F039FA0346002B40F0DA800220F2
:1057940001F00BFE7B68012283F81C237B6893F8DD
:1057A4001C331946714801F03BFF0A2001F050FFF9
:1057B4007B6803225A707B6819797B6893F81C0311
:1057C4007B6893F81D337A68927992B20292002230
:1057D4000192009303468022786800F0B5FE7B684E
:1057E40059797B6893F81C037B6893F81D337A68B6
:1057F400927992B20292002201920093034600220F
:10580400786800F0A1FE9CE00921786800F070F946
:105814000346002B40F097807B6804225A7092E084
:105824007B68B3F838331946786800F061F90346A9
:10583400002B40F08A807B6805225A7085E07B68E3
:1058440093F83233002B1AD07B6893F832137B68B9
:1058540003F58E72FF23786800F06EF90346002B7F
:1058640075D17B6803F58E731946414801F0D8FE63
:105874000A2001F0EDFE7B6806225A7067E03D487D
:1058840001F0CEFE0A2001F0E3FE7B6806225A7086
:105894005DE07B6893F83333002B1AD07B6893F870
:1058A40033137B6803F58E72FF23786800F044F9A4
:1058B4000346002B4DD17B6803F58E7319462E48A1
:1058C40001F0AEFE0A2001F0C3FE7B6807225A7085
:1058D4003FE02A4801F0A4FE0A2001F0B9FE7B68EB
:1058E40007225A7035E07B6893F83433002B19D0C3
:1058F4007B6893F834137B6803F58E72FF23786812
:1059040000F01AF90346002B25D17B6803F58E734A
:1059140019461B4801F084FE0A2001F099FE002379
:10592400FB7318E0174801F07BFE0A2001F090FE9B
:105934000023FB730FE000BF0EE000BF0CE000BFCC
:105944000AE000BF08E000BF06E000BF04E000BFBB
:1059540002E000BF00E000BFFB7B18461037BD46E5
:1059640080BD00BF288700083487000840870008EE
:10597400588700086C870008808700089087000813
:10598400A0870008B487000880B483B000AF7860B3
:1059940039607B683A68C3F8C02300BF0C37BD4642
:1059A40080BC704780B582B000AF78607B68D3F864
:1059B400C0335A1C7B68C3F8C023786800F004F82D
:1059C40000BF0837BD4680BD80B582B000AF7860A7
:1059D4007B681B78DBB20B2B0AD17B68D3F8783356
:1059E400002B05D07B68D3F878339B697868984797
:1059F40000BF0837BD4680BD80B483B000AF786077
:105A04007B68012283F8212300BF0C37BD4680BC8C
:105A1400704780B483B000AF78607B68002283F85D
:105A2400212300BF0C37BD4680BC704780B483B0CF
:105A340000AF78607B68012283F81E237B68002214
:105A440083F81F237B68002283F820230023184651
:105A54000C37BD4680BC704780B582B000AF78601B
:105A64007B68012283F81F237B68002283F81E23AE
:105A74007B68002283F82123786801F04AFB7B6865
:105A84001B791946786800F0AEFD7B685B7919468E
:105A9400786800F0A8FD002318460837BD4680BD8D
:105AA40080B586B002AF78600B46FB707B6803F567
:105AB4008E72FB789BB2009313464FF480720021E0
:105AC400786800F064F80346FB73FB7B002B0AD173
